S015000050616E436F6E74726F6C6C65722E73726563CC
S11300000C9434000C9450020C9451000C94D700BE
S11300100C9451000C94C1030C9451000C945100A5
S11300200C9451000C945A040C9451000C945100FB
S11300300C9451000C9473050C9451000C945100D1
S11300400C9451000C9451000C9451000C945100E8
S11300500C9451000C94A3010C9451000C94510085
S11300600C9451000C94510011241FBECFEFD8E022
S1130070DEBFCDBF11E0A0E0B1E0E8E4FFE002C0E4
S113008005900D92A230B107D9F721E0A2E0B1E0CA
S113009001C01D92A932B207E1F70E9416050C9423
S11300A0A2070C94000090911D01913041F49091AD
S11300B01F0190931E0192E090931D0103C091E0F3
S11300C090931D0187958827879580931F0187E06A
S11300D080931C010895E9E6F0E0808182608083CA
S11300E080818E7F808380911D01823021F483E0A2
S11300F080931D01089510921D01089561111FC080
S1130100853658F4682F70E0660F771F072E000CB1
S1130110880B990B0E94680604C060E070E088E4D4
S113012093E40E9420069B01AC0160E070E08FE73D
S113013093E40E94B3050E94370667BD089585368F
S113014058F4682F70E0660F771F072E000C880B99
S1130150990B0E94680604C060E070E088E493E4B0
S11301600E9420069B01AC0160E070E08FE793E4FD
S11301700E94B3050E94370668BD08952098249A0A
S113018085B18E7E85B9E8E6F0E080818083EBE678
S1130190F0E0808181608083089580910601882346
S11301A021F02C9A1092060108952C9808951F921C
S11301B00F920FB60F9211248F939F93189B06C032
S11301C09091080181E08927809308019F918F9184
S11301D00F900FBE0F901F901895E4E6F0E0808119
S11301E08E7F808387B18C7F87B980E480937C0085
S11301F0EAE7F0E080818F68808384B1866084B907
S113020083E294EF909389008093880090938B000D
S113021080938A00A0E8B0E08C91806A8C938081FE
S1130220806480830895CF92DF92EF92FF92809151
S11302302701882309F482C02091780080917900F5
S1130240837090E0982F8827820F911D9C012C5A6F
S113025033402D30310520F421E02093070102C002
S1130260109207012091080121111AC01092230154
S113027010922401109225011092260180912801E8
S1130280882339F083E294EF90938B0080938A0063
S113029043C083E294EF90938900809388003CC02C
S11302A0C0902301D0902401E0902501F090260114
S11302B062EB73E0681B790B072E000C880B990B1B
S11302C00E94680620E030E0A9010E943507A701DA
S11302D096010E94B40560932301709324018093D6
S11302E02501909326018091230190912401A091EE
S11302F02501B091260180912801882339F083E4F7
S11303009AE790938B0080938A0006C083E49AE76F
S113031090938900809388009091280181E0982728
S113032090932801ECE7F0E0908189278083109274
S11303302701EAE7F0E0808180648083FF90EF90FA
S1130340DF90CF9008951F920F920FB60F92112451
S11303508F9381E0809327018F910F900FBE0F90B0
S11303601F9018959091180180911701981303C05C
S113037080911601089581E0089580931F011092E1
S11303801C0181E080931D0180911901882309F4E7
S11303904AC010921901E8E6F0E080818B7F8083E7
S11303A02BB180911F0190E080959095880F892F43
S11303B0881F990B82959295907F9827807F982724
S11303C08071922F9F7E890F8AB92BB180911F0172
S11303D0881F8827881F90E082959295907F9827A0
S11303E0807F98278071922F9F7E890F8BB980918F
S11303F01C018F5F80931C0180911F0129B1881F0C
S11304008827881F90E082959295907F9827807F17
S11304109827207130E08217930771F7E8E6F0E03F
S113042080818460808352985A9A08950E94B20110
S11304308823E1F30E94B2018823B9F08091160168
S1130440811110921601E0911801809118018F5FBB
S113045080931801809118018A3010F010921801CD
S1130460F0E0E45FFE4F8081089580E00895E9E6BE
S1130470F0E0808182608083808181608083E8E60F
S1130480F0E08081806180936D008081846080834E
S1130490E89A8AB18B7E8AB98BB184618BB908954D
S11304A01F920F920FB60F9211242F933F934F93E5
S11304B05F936F937F938F939F93AF93BF93EF93C8
S11304C0FF9380911A01882309F44AC1809169003D
S11304D08370833009F0AFC080911C01883040F0F4
S11304E010921C018AB18B7E8AB98BB184618BB95D
S11304F080912001873020F566E070E0681B710967
S113050021E030E0A901062E02C0440F551F0A94D1
S1130510E2F799B1542F50952091210152239295DD
S11305209F70292F30E002C0220F331F6A95E2F733
S11305302423250F209321018F5F8093200110C174
S113054090912101903709F00BC18830B8F48F5F86
S11305508093200189B1909122019E7F82958170C0
S1130560890F80932201882319F081E08093190177
S113057080E00E9453000E946B00F2C0813108F0B9
S1130580EFC06FE070E0681B710921E030E0A90161
S1130590062E02C0440F551F0A94E2F799B1542F56
S11305A0509520911B01522392959F70292F30E082
S11305B002C0220F331F6A95E2F72423250F2093EC
S11305C01B018F5F80932001803109F0C9C08091A5
S11305D01601882369F080911801809118018F5FBA
S11305E080931801809118018A3010F0109218013C
S11305F0E0911701809117018F5F8093170180911B
S113060017018A3010F010921701F0E0E45FFE4FFA
S113061020839091170180911801981303C081E001
S11306208093160180E00E9453000E946B0088E0D2
S11306308093200195C0809169008370823009F015
S11306408FC030911C01383008F452C080911D01D4
S11306508250823088F581E080931D0180931C01D3
S113066080911E0180931F012AB180911F0190E0A7
S113067080959095880F892F881F990B8295929564
S1130680907F9827807F98278071922F9F7E890F73
S11306908AB92BB180911F01881F8827881F90E099
S11306A082959295907F9827807F98278071922FCA
S11306B09F7E890F8BB904C010921D0154985C9AD7
S11306C080911901882359F080911D018150823055
S11306D018F41092190144C0529A5A9841C0E9E69C
S11306E0F0E080818260808380818160808338C073
S11306F02AB180911F0190E08095909547E050E0E9
S1130700BA01631B710902C0959587956A95E2F752
S113071082959295907F9827807F98278071922F59
S11307209F7E890F8AB92BB180911F0190E030918F
S11307301C01431B510902C0959587954A95E2F720
S113074082959295907F9827807F98278071922F29
S11307509F7E890F8BB980911C018F5F80931C0150
S1130760FF91EF91BF91AF919F918F917F916F9185
S11307705F914F913F912F910F900FBE0F901F905B
S113078018951F920F920FB60F9211248F93EF9327
S1130790FF934A9B16C04C9B11C010921A011092F1
S11307A019011092210110922001E9E6F0E0808104
S11307B08260808380818160808303C081E0809334
S11307C01A01FF91EF918F910F900FBE0F901F9020
S11307D018951F93CF93DF938AB188688AB987B13C
S11307E0806387B9559A569A5D985E985B985F982E
S11307F088B1806388B984B58F7C84BD84B58F73D8
S113080084BDC4E6D0E088818F7D888311E014BD67
S113081084E085BD60E080E00E947E0061E080E0CD
S11308200E947E0088818F7B888383E08093B00060
S113083088E08093B10089EF8093B3001093700037
S1130840DF91CF911F910895109205011092040138
S1130850109201010895109209016091090184E642
S11308600E947E005B985F9884B5806384BD10927B
S11308700B0110920A01E1EBF0E080818560808336
S1130880089581E0809309016091090184E60E9442
S11308907E0088B18F7C806188B984B5806C84BD0A
S11308A010920B0110920A01E1EBF0E08081856067
S11308B0808308951F920F920FB60F9211242F93E5
S11308C03F934F935F936F937F938F939F93AF93D4
S11308D0BF93EF93FF9380910A0190910B019C01C8
S11308E02F5F3F4F30930B0120930A01863D26E092
S11308F0920779F120F4883E934051F071C08E3B09
S11309002AE0920729F08C3A9D4009F44AC068C055
S11309108091090181110EC084B58F7C84BD6091E2
S1130920090184E60E947E005B985F9884B5806329
S113093084BD56C084B58F7384BD6091090184E67B
S11309400E947E0088B18F7C88B984B5806C84BD98
S113095047C080910901811114C084B58F7C84BD86
S11309606091090184E60E947E005B985F9884B5DB
S1130970806384BD10920301109202011092000161
S11309802FC084B58F7384BD6091090184E60E94F1
S11309907E0088B18F7C806288B984B5806C84BD08
S11309A01FC080910901811109C084B58F7C84BD69
S11309B05B985F9881E0809301010BC084B58F73CD
S11309C084BD88B1806388B981E0809306018093F7
S11309D00001E1EBF0E080818A7F80831092B20015
S11309E0FF91EF91BF91AF919F918F917F916F9103
S11309F05F914F913F912F910F900FBE0F901F90D9
S1130A001895E4E6F0E08081877F808382E080931C
S1130A1080008CE18093810083E294EF90938700BF
S1130A208093860081E080936F00089578940E94FB
S1130A3001050E94BE000E9437020E94ED000E9440
S1130A40E903239AD0E0CFEF08E0F12CEE24E394FD
S1130A501FEF0E94130180910701882319F085B1CB
S1130A60802785B98091040190910501059711F4BF
S1130A700E942B0480910201909103010A9711F4C2
S1130A800E9441040E94B201882319F00E941602B8
S1130A90C82FDD2369F080910101882349F08091FA
S1130AA00701882329F0809101010E94BD01DF2DF7
S1130AB0C13021F030F0C23049F0CBCFDE2DC12F50
S1130AC0C8CF8F2D0E94BD01C12FC3CF80910101DA
S1130AD090910701882309F4BCCF992309F4B9CF75
S1130AE00E942404B6CF1F920F920FB60F921124C6
S1130AF02F933F934F935F936F937F938F939F9322
S1130B00AF93BF93EF93FF93909101012091040160
S1130B103091050181E09827290F311D309305019B
S1130B20209304019091000120910201309103016E
S1130B308927A901480F511D5093030140930201D5
S1130B400E94CD00FF91EF91BF91AF919F918F9142
S1130B507F916F915F914F913F912F910F900FBEB5
S1130B600F901F9018955058BB27AA270E94CB05B9
S1130B700C94E3060E94D50638F00E94DC0620F0AF
S1130B8039F49F3F19F426F40C94D2060EF4E09540
S1130B90E7FB0C94A306E92F0E94F40658F3BA1756
S1130BA0620773078407950720F079F4A6F50C947F
S1130BB02E070EF4E0950B2EBA2FA02D0B01B901D0
S1130BC090010C01CA01A0011124FF27591B99F0BF
S1130BD0593F50F4503E68F11A16F040A22F232FCB
S1130BE0342F4427585FF3CF469537952795A7951B
S1130BF0F0405395C9F77EF41F16BA0B620B730BC2
S1130C00840BBAF09150A1F0FF0FBB1F661F771F32
S1130C10881FC2F70EC0BA0F621F731F841F48F4E7
S1130C20879577956795B795F7959E3F08F0B0CF70
S1130C309395880F08F09927EE0F97958795089557
S1130C400E94160790F09F3748F4911116F40C9403
S1130C502F0760E070E080E89FE3089526F01B16FC
S1130C60611D711D811D0C94A9060C94C4060E947B
S1130C70FC0688F09F5798F0B92F9927B751B0F028
S1130C80E1F0660F771F881F991F1AF0BA95C9F70C
S1130C9014C0B13091F00E942E07B1E008950C9475
S1130CA02E07672F782F8827B85F39F0B93FCCF328
S1130CB0869577956795B395D9F73EF49095809589
S1130CC0709561957F4F8F4F9F4F0895E89409C0A9
S1130CD097FB3EF490958095709561957F4F8F4F6B
S1130CE09F4F9923A9F0F92F96E9BB279395F69581
S1130CF0879577956795B795F111F8CFFAF4BB0FFF
S1130D0011F460FF1BC06F5F7F4F8F4F9F4F16C062
S1130D10882311F096E911C0772321F09EE8872FEC
S1130D20762F05C0662371F096E8862F70E060E0A8
S1130D302AF09A95660F771F881FDAF7880F969521
S1130D40879597F9089597F99F6780E870E060E0C8
S1130D500895882371F4772321F09850872B762FF8
S1130D6007C0662311F499270DC09051862B70E0BB
S1130D7060E02AF09A95660F771F881FDAF7880FCC
S1130D809695879597F908959F3F31F0915020F4F7
S1130D90879577956795B795880F911D9695879553
S1130DA097F908959FEF80EC089500240A9416168D
S1130DB0170618060906089500240A941216130645
S1130DC0140605060895092E0394000C11F48823D3
S1130DD052F0BB0F40F4BF2B11F460FF04C06F5FEF
S1130DE07F4F8F4F9F4F089557FD9058440F551FC5
S1130DF059F05F3F71F04795880F97FB991F61F099
S1130E009F3F79F087950895121613061406551F0F
S1130E10F2CF4695F1DF08C0161617061806991F7B
S1130E20F1CF869571056105089408950E94FC062A
S1130E30A0F0BEE7B91788F4BB279F3860F41616F4
S1130E40B11D672F782F8827985FF7CF8695779500
S1130E506795B11D93959639C8F30895E894BB2717
S1130E6066277727CB0197F908950E9448070C94C9
S1130E70E3060E94D50638F00E94DC0620F0952394
S1130E8011F00C94A3060C94D20611240C942F0791
S1130E900E94F40670F3959FC1F3950F50E0551F1F
S1130EA0629FF001729FBB27F00DB11D639FAA27BB
S1130EB0F00DB11DAA1F649F6627B00DA11D661F0A
S1130EC0829F2227B00DA11D621F739FB00DA11D2B
S1130ED0621F839FA00D611D221F749F3327A00DE5
S1130EE0611D231F849F600D211D822F762F6A2F81
S1130EF011249F5750409AF0F1F088234AF0EE0FE6
S1130F00FF1FBB1F661F771F881F91505040A9F712
S1130F109E3F510580F00C94A3060C942F075F3F6D
S1130F20E4F3983ED4F3869577956795B795F7954E
S1130F30E7959F5FC1F7FE2B880F911D96958795C6
S10B0F4097F90895F894FFCF1E
S1050F480101A1
S9030000FC
