S015000050616E436F6E74726F6C6C65722E73726563CC
S11300000C9434000C941A020C9451000C946C005F
S11300100C9451000C9438030C9451000C9451002E
S11300200C9451000C9411040C9451000C94510044
S11300300C9451000C94E0040C9451000C94510065
S11300400C9451000C9451000C9451000C945100E8
S11300500C9451000C94EA000C9451000C9451003F
S11300600C9451000C94510011241FBECFEFD8E022
S1130070DEBFCDBF11E0A0E0B1E0E8E4FDE002C0E6
S113008005900D92A230B107D9F721E0A2E0B1E0CA
S113009001C01D92A432B207E1F70E94A8040C9497
S11300A0A2060C94000084B18E7E806184B92C98E1
S11300B0E8E6F0E080818083EBE6F0E08081816017
S11300C08083089580910601882321F02C9A109250
S11300D0060108952C9808951F920F920FB60F925F
S11300E011240F900FBE0F901F901895E4E6F0E0D6
S11300F080818E7F808387B18C7F87B980E48093F1
S11301007C00EAE7F0E080818F68808384B18660B8
S113011084B981E19AE79093890080938800909351
S11301208B0080938A00A0E8B0E08C91806A8C9365
S11301308081806480830895909119019923F9F056
S1130140853680F428EC3EEF829FB001839F700DCA
S113015011246F5E7548072E000C880B990B0E94C2
S1130160D50504C060E070E084E492E40E948D054B
S11301700E94A40570938B0060938A0008958536CD
S113018080F428EC3EEF829FB001839F700D112410
S11301906F5E7548072E000C880B990B0E94D505DD
S11301A004C060E070E084E492E40E948D050E9443
S11301B0A4057093890060938800089520917800C5
S11301C080917900837090E0982F88272C7F820F8C
S11301D0911D08951F920F920FB60F9211242F9321
S11301E03F934F935F936F937F938F939F93AF93BB
S11301F0BF93EF93FF9378940E94DE00309119012E
S113020021E0322730931901ECE7F0E03081232715
S113021020838C5A93400D9720F481E0809307014A
S113022002C01092070180910801811108C00E9448
S11302309C00EAE7F0E080818064808305C0EAE7FF
S1130240F0E0808180648083FF91EF91BF91AF9152
S11302509F918F917F916F915F914F913F912F91DA
S11302600F900FBE0F901F90189590910E018091E2
S11302700D01981303C080910C01089581E0089545
S1130280809315011092120181E0809313018091F3
S11302900F018823A9F110920F01E8E6F0E08081B4
S11302A08B7F80832BB180911501881F8827881F3D
S11302B090E082959295907F9827807F982780710F
S11302C0922F9F7E890F8BB9809112018F5F80934B
S11302D012018091150129B1881F8827881F90E099
S11302E082959295907F9827807F9827207130E09F
S11302F08217930771F7E8E6F0E0808184608083D9
S11303005A9A0895E9E6F0E08081826080838081D2
S113031081608083E8E6F0E08081806180936D00F5
S11303208081846080838AB18B7E8AB98AB1806E31
S11303308AB98BB184618BB908959091130191307E
S113034041F4909115019093140192E0909313015C
S113035003C091E090931301879588278795809334
S1130360150187E0809312010895E9E6F0E08081A9
S11303708260808380818E7F8083809113018230AC
S113038021F483E0809313010895109213010895DA
S1130390809113018150823028F410920F0181E082
S11303A090E008955A9880E090E00895FC018081DF
S11303B091E0980F9A3010F4908308951082089574
S11303C0CF93C82F80910C01882329F080910E01CE
S11303D08F5F80930E018DE091E00E94D601E82F9B
S11303E0F0E0E65EFE4FC08390910D0180910E0116
S11303F0981303C081E080930C01CF9108950E946B
S113040035018823A9F080910E018A3010F01092F2
S11304100E0180910C01811110920C018EE091E08B
S11304200E94D601E82FF0E0E65EFE4F8081089539
S113043080E008951F920F920FB60F9211242F930C
S11304403F934F935F936F937F938F939F93AF9358
S1130450BF93EF93FF9380911001882309F4F7C0B1
S1130460809169008370833009F098C080911201F3
S1130470883028F0109212018BB184618BB990916D
S11304801601973020F566E070E0691B710921E0E0
S113049030E0A901062E02C0440F551F0A94E2F76A
S11304A089B1542F509520911701522382958F7052
S11304B0282F30E002C0220F331F6A95E2F724236D
S11304C0250F209317019F5F90931601C0C0809160
S11304D01701803709F0BBC09830B8F49F5F909340
S11304E0160189B1909118019E7F82958170890FC0
S11304F080931801882319F081E080930F0180E034
S11305000E949D010E94B501A2C0993020F49F5F12
S1130510909316019CC0913108F099C08091180104
S1130520811131C06FE070E0691B710921E030E096
S1130530A901062E02C0440F551F0A94E2F739B1EF
S1130540242F209580911101822332953F70232F0F
S113055030E002C0220F331F6A95E2F72423820F92
S1130560809311019F5F90931601903109F06FC041
S11305700E94E00180E00E949D010E94B50188E094
S11305808093160164C00E94C801892B09F45FC0DE
S11305900E94B50187E08093160159C080916900DB
S11305A08370823009F053C030911201383090F1D9
S11305B08091130182508230E0F481E08093130132
S11305C08093120180911401809315012BB18091C5
S11305D01501881F8827881F90E082959295907F47
S11305E09827807F98278071922F9F7E890F8BB9DF
S11305F001C05C9A80910F01882319F00E94C80100
S113060026C0E9E6F0E08081826080838081816099
S113061080831DC02BB18091150190E047E050E02C
S1130620431B510902C0959587954A95E2F7829537
S11306309295907F9827807F98278071922F9F7E34
S1130640890F8BB9809112018F5F80931201FF9102
S1130650EF91BF91AF919F918F917F916F915F9136
S11306604F913F912F910F900FBE0F901F901895AF
S11306701F920F920FB60F9211248F93EF93FF9353
S11306804A9B17C04C9B12C0109210011092170184
S113069010921601E9E6F0E0808182608083808117
S11306A0816080838BB184618BB903C081E08093C6
S11306B01001FF91EF918F910F900FBE0F901F903B
S11306C018951092050110920401109201010895E9
S11306D01092030110920201109200010895611119
S11306E01FC0853658F4682F70E0660F771F072EF9
S11306F0000C880B990B0E94D50504C060E070E0E3
S113070088E493E40E948D059B01AC0160E070E0F5
S11307108FE793E40E9420050E94A40567BD089515
S1130720853658F4682F70E0660F771F072E000C8B
S1130730880B990B0E94D50504C060E070E088E442
S113074093E40E948D059B01AC0160E070E08FE7AB
S113075093E40E9420050E94A40568BD0895CF93E8
S1130760DF9384B1806C84B987B1806387B984B125
S1130770806C84B987B1806387B955985698C4E66C
S1130780D0E088818F7D888381EE84BD84E085BD3F
S113079060E080E00E946F0361E080E00E946F03EC
S11307A088818F7B888383E08093B00088E0809386
S11307B0B10089EF8093B30081E080937000DF91F2
S11307C0CF91089510920B0110920A01E1EBF0E031
S11307D080818560808308951092090160E08FEF25
S11307E00E946F0384B18F73806484B9559A0E9408
S11307F0E203089581E08093090161E08FEF0E9494
S11308006F0387B18F7C806187B9569A0E94E20397
S11308100895E1EBF0E080818A7F80831092B2003A
S113082008951F920F920FB60F9211242F933F93A6
S11308304F935F936F937F938F939F93AF93BF93E4
S1130840CF93EF93FF9380910A0190910B019C0148
S11308502F5F3F4F30930B0120930A018E3E2FE709
S1130860920701F120F4873F9F4341F04AC0853E3F
S11308702FEB920719F0849669F143C0C0910901E6
S11308806C2F8FEF0E946F03C11106C0559884B17D
S11308908F7384B9559A35C0569887B18F7C87B9C0
S11308A0569A2FC0C09109016C2F8FEF0E946F03DD
S11308B0C11109C0559884B18F73806884B9559A61
S11308C00E9468031EC0569887B18F7C806287B9E6
S11308D0569A17C080910901811108C0559884B1B6
S11308E0806C84B981E08093010109C0569887B176
S11308F0806387B981E080930601809300010E94A0
S11309000904FF91EF91CF91BF91AF919F918F9186
S11309107F916F915F914F913F912F910F900FBEF7
S11309200F901F901895E4E6F0E08081877F808324
S113093082E0809380008CE18093810081E19AE7DA
S1130940909387008093860081E080936F000895E0
S113095078940E9493040E9453000E9482010E9492
S113096076000E94AF038091040190910501843BBD
S1130970910511F40E94EC0380910201909103010E
S11309808837910511F40E94FA030E9435018823E7
S113099051F30E94FF01813041F018F0823069F078
S11309A0E2CF80E00E944001DECF9091010180916E
S11309B0070189230E944001D6CF0E946103D3CF4F
S11309C01F920F920FB60F9211242F933F934F93C0
S11309D05F936F937F938F939F93AF93BF93EF93A3
S11309E0FF939091010181E09827209104013091B7
S11309F00501290F311D30930501209304019091C5
S1130A00000189272091020130910301A901480FB7
S1130A10511D50930301409302010E946200FF9113
S1130A20EF91BF91AF919F918F917F916F915F9162
S1130A304F913F912F910F900FBE0F901F901895DB
S1130A405058BB27AA270E9438050C9450060E94D0
S1130A50420638F00E94490620F039F49F3F19F409
S1130A6026F40C943F060EF4E095E7FB0C94100674
S1130A70E92F0E94610658F3BA17620773078407C7
S1130A80950720F079F4A6F50C949B060EF4E095F6
S1130A900B2EBA2FA02D0B01B90190010C01CA0134
S1130AA0A0011124FF27591B99F0593F50F4503EDF
S1130AB068F11A16F040A22F232F342F4427585FD1
S1130AC0F3CF469537952795A795F0405395C9F7E9
S1130AD07EF41F16BA0B620B730B840BBAF09150A1
S1130AE0A1F0FF0FBB1F661F771F881FC2F70EC040
S1130AF0BA0F621F731F841F48F487957795679513
S1130B00B795F7959E3F08F0B0CF9395880F08F0FE
S1130B109927EE0F9795879508950E94830690F084
S1130B209F3748F4911116F40C949C0660E070E031
S1130B3080E89FE3089526F01B16611D711D811D39
S1130B400C9416060C9431060E94690688F09F578F
S1130B5098F0B92F9927B751B0F0E1F0660F771FDD
S1130B60881F991F1AF0BA95C9F714C0B13091F0D3
S1130B700E949B06B1E008950C949B06672F782F82
S1130B808827B85F39F0B93FCCF386957795679598
S1130B90B395D9F73EF490958095709561957F4F04
S1130BA08F4F9F4F0895E89409C097FB3EF49095AA
S1130BB08095709561957F4F8F4F9F4F9923A9F032
S1130BC0F92F96E9BB279395F695879577956795C1
S1130BD0B795F111F8CFFAF4BB0F11F460FF1BC005
S1130BE06F5F7F4F8F4F9F4F16C0882311F096E998
S1130BF011C0772321F09EE8872F762F05C0662346
S1130C0071F096E8862F70E060E02AF09A95660FFE
S1130C10771F881FDAF7880F9695879597F90895B7
S1130C2097F99F6780E870E060E00895882371F485
S1130C30772321F09850872B762F07C0662311F471
S1130C4099270DC09051862B70E060E02AF09A95A8
S1130C50660F771F881FDAF7880F9695879597F99F
S1130C6008959F3F31F0915020F4879577956795CB
S1130C70B795880F911D9695879597F908959FEFDD
S1130C8080EC089500240A9416161706180609061F
S1130C90089500240A9412161306140605060895EE
S1130CA0092E0394000C11F4882352F0BB0F40F476
S1130CB0BF2B11F460FF04C06F5F7F4F8F4F9F4FB6
S1130CC0089557FD9058440F551F59F05F3F71F038
S1130CD04795880F97FB991F61F09F3F79F087959F
S1130CE00895121613061406551FF2CF4695F1DF28
S1130CF008C0161617061806991FF1CF86957105B8
S1130D006105089408950E946906A0F0BEE7B9172A
S1130D1088F4BB279F3860F41616B11D672F782F0F
S1130D208827985FF7CF869577956795B11D93953A
S1130D309639C8F30895E894BB2766277727CB0133
S10B0D4097F90895F894FFCF20
S1050D480101A3
S9030000FC
