S01A000041726475696E6F5F506F7765725F746573742E73726563AD
S11300000C9434000C943E000C943E000C943E007E
S11300100C943E000C943E000C943E000C943E0064
S11300200C943E000C943E000C943E000C943E0054
S11300300C943E000C943E000C943E000C943E0044
S11300400C943E000C943E000C943E000C943E0034
S11300500C943E000C943E000C943E000C943E0024
S11300600C943E000C943E0011241FBECFEFD8E048
S1130070DEBFCDBF0E9440000C9461000C940000D0
S11300808AB18C6F8AB98FE384B987B99BB19C6FAD
S11300909BB985B988B98FEF15B82FEF33ED90E38D
S11300A0215030409040E1F700C0000085B92FEFA7
S11300B033ED90E3215030409040E1F700C0000060
S10900C0EBCFF894FFCF22
S9030000FC
