S0180000556C747261736F756E6453656E736F722E7372656361
S11300000C9434000C9423010C9451000C94510072
S11300100C9451000C9451000C9451000C94510018
S11300200C9451000C9451000C9451000C94510008
S11300300C9451000C9451000C9451000C945100F8
S11300400C9451000C9451000C9451000C945100E8
S11300500C9451000C9451000C9451000C945100D8
S11300600C9451000C94510011241FBECFEFD8E022
S1130070DEBFCDBF11E0A0E0B1E0E8E7FCE002C0E4
S113008005900D92A830B107D9F721E0A8E0B1E0BE
S113009001C01D92AB30B207E1F70E9453000C94EB
S11300A03A060C940000CF93DF93CDB7DEB7DA9510
S11300B00FB6F894DEBF0FBECDBF78940E949201B4
S11300C02EE448E060E071EE80E090E00E948E0053
S11300D00F2EF0E0EF2EF1E0FF2EF02D8E010F5FDA
S11300E01F4F0E9479019F938F93FF92EF921F936A
S11300F00F930E945003C8010E9414012FEF81EE58
S113010094E0215080409040E1F700C000000F903F
S11301100F900F900F900F900F90E3CF0F931F93BA
S1130120CF93DF93C42FD22F8B019C010C5211402B
S113013021093109053D104C2140310508F067C003
S11301402BEF2C0F243008F062C0E0ECF0E02081AB
S11301502C7F208328E12093C100E2ECF0E0208191
S11301601082DC01CB01880F991FAA1FBB1F880FC7
S1130170991FAA1FBB1F9C01AD01220F331F441FEF
S1130180551F220F331F441F551F60E074E284EF94
S113019090E00E942E03215031093093C500209332
S11301A0C400C63071F018F4C53031F01BC0C7303C
S11301B071F0C83091F016C0E2ECF0E080818083E9
S11301C011C0E2ECF0E08081826080830BC0E2EC3D
S11301D0F0E080818460808305C0E2ECF0E08081FF
S11301E086608083D53419F0DF3439F00CC0E2EC3A
S11301F0F0E08081806280830AC0E2ECF0E08081DC
S11302008063808304C0E2ECF0E080818083DF912E
S1130210CF911F910F910895E0ECF0E0908195FF4C
S1130220FDCF8093C6000895CF93DF93EC018881BE
S1130230882331F021960E940C0189918111FBCF12
S1130240DF91CF9108951F920F920FB60F92112450
S11302502F933F934F935F936F937F938F939F93CA
S1130260AF93BF93EF93FF9380910801882319F113
S11302701092B1006091B20070E080E090E00E94C2
S1130280350229EE38E44EE85EE30E94C10225EC13
S11302903EEF42E75EE30E94970120E030E040E257
S11302A051E40E94C1020E94040270930A01609307
S11302B00901E8980DC01092B20086E08093B10065
S11302C081E080930801E9E6F0E080818E7F8083FD
S11302D0FF91EF91BF91AF919F918F917F916F911A
S11302E05F914F913F912F910F900FBE0F901F90F0
S11302F0189510920801E89AE9E6F0E0808183609D
S113030080835B9A85E38A95F1F700005B988FE31D
S11303109CE90197F1F700C00000809109019091D8
S11303200A010895539A52981092B00008955058B3
S1130330BB27AA270E94AF010C9487020E9479026E
S113034038F00E94800220F039F49F3F19F426F41B
S11303500C9476020EF4E095E7FB0C947002E92FFE
S11303600E94980258F3BA17620773078407950727
S113037020F079F4A6F50C94BA020EF4E0950B2E55
S1130380BA2FA02D0B01B90190010C01CA01A001E3
S11303901124FF27591B99F0593F50F4503E68F13E
S11303A01A16F040A22F232F342F4427585FF3CF7F
S11303B0469537952795A795F0405395C9F77EF450
S11303C01F16BA0B620B730B840BBAF09150A1F099
S11303D0FF0FBB1F661F771F881FC2F70EC0BA0F1F
S11303E0621F731F841F48F4879577956795B795A7
S11303F0F7959E3F08F0B0CF9395880F08F09927A2
S1130400EE0F9795879508950E94A00288F09F5754
S113041098F0B92F9927B751B0F0E1F0660F771F24
S1130420881F991F1AF0BA95C9F714C0B13091F01A
S11304300E94BA02B1E008950C94BA02672F782F93
S11304408827B85F39F0B93FCCF3869577956795DF
S1130450B395D9F73EF490958095709561957F4F4B
S11304608F4F9F4F0895E89409C097FB3EF49095F1
S11304708095709561957F4F8F4F9F4F9923A9F079
S1130480F92F96E9BB279395F69587957795679508
S1130490B795F111F8CFFAF4BB0F11F460FF1BC04C
S11304A06F5F7F4F8F4F9F4F16C0882311F096E9DF
S11304B011C0772321F09EE8872F762F05C066238D
S11304C071F096E8862F70E060E02AF09A95660F46
S11304D0771F881FDAF7880F9695879597F90895FF
S11304E097F99F6780E870E060E008959FEF80ECE3
S11304F0089500240A941616170618060906089586
S113050000240A9412161306140605060895092EEB
S11305100394000C11F4882352F0BB0F40F4BF2B5A
S113052011F460FF04C06F5F7F4F8F4F9F4F08959A
S113053057FD9058440F551F59F05F3F71F0479590
S1130540880F97FB991F61F09F3F79F08795089575
S1130550121613061406551FF2CF4695F1DF08C094
S1130560161617061806991FF1CF869571056105B1
S113057008940895E894BB2766277727CB0197F959
S113058008950E94D4020C9487020E94790238F0E4
S11305900E94800220F0952311F00C9470020C94B8
S11305A0760211240C94BB020E94980270F3959F6A
S11305B0C1F3950F50E0551F629FF001729FBB2756
S11305C0F00DB11D639FAA27F00DB11DAA1F649FF2
S11305D06627B00DA11D661F829F2227B00DA11DA5
S11305E0621F739FB00DA11D621F839FA00D611D2B
S11305F0221F749F3327A00D611D231F849F600D4C
S1130600211D822F762F6A2F11249F5750409AF074
S1130610F1F088234AF0EE0FFF1FBB1F661F771F00
S1130620881F91505040A9F79E3F510580F00C94CB
S113063070020C94BB025F3FE4F3983ED4F38695BA
S113064077956795B795F795E7959F5FC1F7FE2B6B
S1130650880F911D9695879597F90895A1E21A2E12
S1130660AA1BBB1BFD010DC0AA1FBB1FEE1FFF1F52
S1130670A217B307E407F50720F0A21BB30BE40BA2
S1130680F50B661F771F881F991F1A9469F76095E9
S11306907095809590959B01AC01BD01CF010895A3
S11306A0AEE0B0E0E6E5F3E00C9411060D891E8996
S11306B086E08C831A8309838FEF9FE79E838D8363
S11306C0AE01475E5F4F6F89788DCE0101960E941F
S11306D07203EF81F885E00FF11F10822E96E4E09B
S11306E00C942D06ABE0B0E0E8E7F3E00C940306CD
S11306F06C017B018A01FC0117821682838181FFD0
S1130700CCC1CE0101963C01F6019381F70193FD22
S1130710859193FF81917F01882309F4BAC18532C1
S113072039F493FD859193FF81917F01853229F4FA
S1130730B60190E00E946905E7CF912C212C312C61
S1130740FFE1F315D8F08B3279F038F4803279F088
S11307508332A1F4232D20611DC08D3261F08033DA
S113076069F4232D216016C0832D8260382EE32D79
S1130770E4603E2E2AC0F32DF8601DC037FC2DC066
S113078020ED280F2A3040F08E32B9F436FC81C1B6
S1130790232D2064322E19C036FE06C08AE0989EAE
S11307A0200D1124922E11C0EAE02E9E200D11245A
S11307B0222EF32DF0623F2E08C08C3621F4832DB7
S11307C08068382E02C0883641F4F70193FD859184
S11307D093FF81917F018111B3CF982F9F7D955411
S11307E0933028F40C5F1F4F9FE399830DC0833629
S11307F031F0833771F0833509F059C021C0F80115
S1130800808189830E5F1F4F88248394912C530128
S113081013C02801F2E04F0E511CF801A080B180F2
S113082036FE03C0692D70E002C06FEF7FEFC50193
S11308300E945E054C018201F32DFF773F2E16C006
S1130840280122E0420E511CF801A080B18036FE3E
S113085003C0692D70E002C06FEF7FEFC5010E94F5
S113086053054C01F32DF0683F2E820133FC1BC06D
S1130870822D90E088169906B0F4B60180E290E0EB
S11308800E9469052A94F4CFF50137FC859137FE5F
S113089081915F01B60190E00E94690521102A94BC
S11308A021E0821A91088114910471F7E8C084361A
S11308B011F0893641F5F80137FE07C06081718176
S11308C0828193810C5F1F4F08C060817181072E64
S11308D0000C880B990B0E5F1F4FF32DFF763F2EF4
S11308E097FF09C090958095709561957F4F8F4FC4
S11308F09F4FF0683F2E2AE030E0A3010E94A50537
S1130900882E861845C0853731F4232D2F7EB22ECC
S11309102AE030E025C0932D997FB92E8F36C1F09F
S113092018F4883579F0B5C0803719F0883721F08C
S1130930B0C0E92FE061BE2EB4FE0DC0FB2DF46003
S1130940BF2E09C034FE0AC0292F2660B22E06C06D
S113095028E030E005C020E130E002C020E132E0D0
S1130960F801B7FE07C060817181828193810C5FB9
S11309701F4F06C06081718180E090E00E5F1F4FC1
S1130980A3010E94A505882E8618FB2DFF773F2E14
S113099036FE0DC0232D2E7FA22E891458F434FE6A
S11309A00BC032FC09C0832D8E7EA82E05C0B82C46
S11309B0A32C03C0B82C01C0B92CA4FE0FC0FE01A7
S11309C0E80DF11D8081803321F49A2D997EA92EA2
S11309D009C0A2FE06C0B394B39404C08A2D8678DD
S11309E009F0B394A3FC11C0A0FE06C0B21488F4AD
S11309F0280C922C9B180EC0B21460F4B60180E24D
S1130A0090E00E946905B394F7CFB21418F42B1840
S1130A1002C0982C212CA4FE10C0B60180E390E003
S1130A200E946905A2FE17C0A1FC03C088E790E0FC
S1130A3002C088E590E0B6010CC08A2D867859F092
S1130A40A1FE02C08BE201C080E2A7FC8DE2B601E8
S1130A5090E00E946905891438F4B60180E390E0BF
S1130A600E9469059A94F7CF8A94F301E80DF11D69
S1130A708081B60190E00E9469058110F5CF2220A3
S1130A8009F442CEB60180E290E00E9469052A94FE
S1130A90F6CFF6018681978102C08FEF9FEF2B96E8
S1130AA0E2E10C941F06FC010590615070400110B6
S1130AB0D8F7809590958E0F9F1F0895FC01615083
S1130AC0704001900110D8F7809590958E0F9F1F6C
S1130AD008950F931F93CF93DF93FB01238121FD8F
S1130AE003C08FEF9FEF2CC022FF16C046815781B1
S1130AF0248135814217530744F4A081B1819D01BB
S1130B002F5F3F4F318320838C93268137812F5F62
S1130B103F4F3783268314C08B01EC01FB01008413
S1130B20F185E02D0995892BE1F6D80116968D9172
S1130B309C911797019617969C938E931697CE01C6
S1130B40DF91CF911F910F910895FA01AA272830C0
S1130B5051F1203181F1E8946F936E7F6E5F7F4F86
S1130B608F4F9F4FAF4FB1E03ED0B4E03CD0670F02
S1130B70781F891F9A1FA11D680F791F8A1F911D55
S1130B80A11D6A0F711D811D911DA11D20D009F4A5
S1130B9068943F912AE0269F11243019305D3193E7
S1130BA0DEF6CF010895462F4770405D4193B3E0D0
S1130BB00FD0C9F7F6CF462F4F70405D4A3318F077
S1130BC0495D31FD4052419302D0A9F7EACFB4E028
S1130BD0A6959795879577956795BA95C9F70097E0
S1130BE06105710508959B01AC010A2E0694579581
S1130BF0479537952795BA95C9F7620F731F841FD8
S1130C00951FA01D08952F923F924F925F926F926D
S1130C107F928F929F92AF92BF92CF92DF92EF9288
S1130C20FF920F931F93CF93DF93CDB7DEB7CA1B09
S1130C30DB0B0FB6F894DEBF0FBECDBF09942A8834
S1130C40398848885F846E847D848C849B84AA84DC
S1130C50B984C884DF80EE80FD800C811B81AA8169
S1130C60B981CE0FD11D0FB6F894DEBF0FBECDBF34
S10B0C70ED010895F894FFCF93
S10B0C782564206D6D0A0D00D6
S9030000FC
