:100000000C9434000C946D020C9446000C94460041
:100010000C9441040C9444020C9446000C94460049
:100020000C9446000C9446000C9446000C94460038
:100030000C9446000C9414010C9446000C94460059
:100040000C9446000C9446000C9446000C94460018
:100050000C9446000C947C000C9446000C944600D2
:100060000C941A040C94460011241FBECFEFD8E064
:10007000DEBFCDBF21E0A0E0B1E001C01D92AA32F9
:10008000B207E1F70E94B2030C944F060C940000F3
:10009000219A3B98E0E8F0E0808182688083E1E883
:1000A000F0E080818A6180838FE39CE990938700F0
:1000B0008093860080E29EE490938900809388007C
:1000C00016BC84B5826084BD85B5856085BD83E43A
:1000D00087BDEAE7F0E0808182608083ACE7B0E032
:1000E0008C9183628C938081886A8083EBE7F0E057
:1000F00080818360808308951F920F920FB60F92C4
:1001000011248F939F93A99A809178009091790000
:100110000024880F991F001C880F991F001C892F2D
:10012000902D909302018093010181E08093000162
:100130009F918F910F900FBE0F901F901895109266
:100140000C0110920B0184B18C6084B9E0E8F0E0FE
:10015000808182628083E1E8F0E080818A6180832F
:100160008FE39CE990938700809386008FE99FE05E
:1001700090930A01809309018FEC97E09093080116
:10018000809307018091090190910A0190930401E5
:1001900080930301809107019091080190930601DB
:1001A00080930501EFE6F0E080818160808308950F
:1001B0008091090190910A019093060180930501B5
:1001C0002FEF83EC99E0215080409040E1F700C090
:1001D00000008091070190910801909304018093A1
:1001E00003012FEF83EC99E0215080409040E1F72C
:1001F00000C000008091090190910A0190930401D0
:10020000809303012FEF83EC99E0215080409040D0
:10021000E1F700C0000080910701909108019093E0
:1002200006018093050108951F920F920FB60F9259
:1002300011248F939F9380910B0190910C01019653
:1002400090930C0180930B0180910B0190910C0114
:10025000049749F4809103019091040190938B00DD
:1002600080938A0022C080910B0190910C01059728
:1002700011F42B9A1AC080910B0190910C010997EF
:1002800049F4809105019091060190938B00809331
:100290008A000BC080910B0190910C010A9729F400
:1002A00010920C0110920B012B989F918F910F903F
:1002B0000FBE0F901F901895909119018091180111
:1002C000981303C080911701089581E008958093E9
:1002D000200110921D0181E080931E0180911A017E
:1002E0008823B9F110921A01E8E6F0E080818B7F53
:1002F00080832BB18091200190E0880F892F881F87
:10030000990B82959295907F9827807F982780718E
:10031000922F9F7E890F8BB980911D018F5F8093F3
:100320001D018091200129B190E0880F892F881F3D
:10033000990B82959295907F9827807F98272071BE
:1003400030E08217930769F7E8E6F0E08081846087
:1003500080835A9A0895E9E6F0E080818260808384
:10036000808181608083E8E6F0E080818061809315
:100370006D00808184608083E89A8AB18B7E8AB91F
:100380008AB1806E8AB98BB184618BB908959091DE
:100390001E01913041F49091200190931F0192E051
:1003A00090931E0103C091E090931E0187958827CA
:1003B00087958093200187E080931D010895E9E6E9
:1003C000F0E080818260808380818E7F8083809155
:1003D0001E01823021F483E080931E010895109263
:1003E0001E01089580911E018150823028F41092E0
:1003F0001A0181E090E008955A9880E090E0089515
:10040000FC01808191E0980F9A3010F49083089558
:1004100010820895CF93C82F80911701882329F067
:10042000809119018F5F8093190188E191E00E940A
:100430000002E82FF0E0E35FFE4FC08390911801C7
:1004400080911901981303C081E080931701CF9127
:1004500008950E945C018823A9F0809119018A30D7
:1004600010F010921901809117018111109217015B
:1004700089E191E00E940002E82FF0E0E35FFE4F87
:100480008081089580E008951F920F920FB60F9219
:1004900011248F93EF93FF934A9B17C04C9B12C07C
:1004A00010921B011092220110922101E9E6F0E066
:1004B0008081826080838081816080838BB1846150
:1004C0008BB903C081E080931B01FF91EF918F9165
:1004D0000F900FBE0F901F9018951F920F920FB69E
:1004E0000F9211242F933F934F935F936F937F93BA
:1004F0008F939F93AF93BF93EF93FF9380911B01D3
:10050000882309F404C1809169008370833009F065
:10051000A4C080911D01883028F010921D018BB17C
:1005200084618BB990912101973050F566E070E0BD
:10053000691B710921E030E0A901062E02C0440FB9
:10054000551F0A94E2F789B1542F5095209122014A
:100550005223282F30E035952795359527953595E9
:1005600027953595279502C0220F331F6A95E2F72C
:100570002423250F209322019F5F90932101C7C060
:1005800080912201803709F0C2C09830B8F49F5F93
:100590009093210189B1909123019E7F8295817072
:1005A000890F80932301882319F081E080931A0139
:1005B00080E00E94C7010E94DF01A9C0993020F4A9
:1005C0009F5F90932101A3C0913108F0A0C080915A
:1005D0002301811137C06FE070E0691B710921E0D0
:1005E00030E0A901062E02C0440F551F0A94E2F71D
:1005F00039B1242F209580911C018223232F30E0D4
:1006000035952795359527953595279535952795D2
:1006100002C0220F331F6A95E2F72423820F8093D2
:100620001C019F5F90932101903109F070C00E94DE
:100630000A0280E00E94C7010E94DF0188E08093E7
:10064000210165C00E94F201892B09F460C00E945B
:10065000DF0187E0809321015AC080916900837097
:10066000823009F054C030911D01383098F18091EA
:100670001E0182508230E8F481E080931E01809355
:100680001D0180911F01809320012BB180912001D9
:1006900090E0880F892F881F990B82959295907F03
:1006A0009827807F98278071922F9F7E890F8BB922
:1006B00001C05C9A80911A01882319F00E94F2010E
:1006C00026C0E9E6F0E080818260808380818160DD
:1006D00080831DC02BB18091200190E047E050E065
:1006E000431B510902C0959587954A95E2F782957B
:1006F0009295907F9827807F98278071922F9F7E78
:10070000890F8BB980911D018F5F80931D01FF912F
:10071000EF91BF91AF919F918F917F916F915F9179
:100720004F913F912F910F900FBE0F901F901895F2
:100730000E94AB0108950E945C01882391F00E9401
:100740002902843051F0853029F0833051F40E9421
:10075000C70308950E94D10308950E94CE030E940A
:100760006701089578940E9498030E9432040E94C1
:1007700096040E949F000E949B032FEF89E698E158
:10078000215080409040E1F700C00000F4CF0E946B
:1007900037040E94D8000E943C0408950E94A004DF
:1007A00008950E944800089578948093B800862F99
:1007B0008270880F6170682B6093B90084E0809329
:1007C000BC000895CF93DF939091260191112FC023
:1007D00091E090932601880FECEBF0E034EAA9EB6E
:1007E000B0E0CBEBD0E024E830839C919830E9F77F
:1007F0008883208390819923ECF79C919833A1F30F
:10080000ECEBF0E0CBEBD0E094E8A9EBB0E080813A
:100810008823ECF76883908380818823ECF78C91A0
:100820008833A9F384E98093BC0010922601DF91FC
:10083000CF9108951F920F920FB60F9211248F93AC
:100840008091BB008093250181E08093240184E99D
:100850008093BC00109226018F910F900FBE0F90D5
:100860001F90189563E080E00E94D403089561E032
:1008700082E20E94E203089562E082E20E94E203C3
:1008800008951F920F920FB60F9211242F933F934A
:100890004F935F936F937F938F939F93AF93BF9388
:1008A000EF93FF9380912701882339F11092B100D3
:1008B0006091B20070E080E090E00E94560529EE61
:1008C00038E44EE85EE30E94E2052AEE34E044E7B5
:1008D0005EE30E94B80420E030E040E251E40E9470
:1008E000E2050E9425057093290160932801ECE63A
:1008F000F0E080818F7D808308C01092B20086E096
:100900008093B10081E080932701FF91EF91BF9127
:10091000AF919F918F917F916F915F914F913F9197
:100920002F910F900FBE0F901F901895519A5298CB
:100930001092B000E8E6F0E0808182608083089544
:1009400010922701ECE6F0E08081846080835C9A5D
:1009500085E38A95F1F700005C988FE39CE90197A5
:10096000F1F700C0000080912801909129010895BD
:100970005058BB27AA270E94D0040C94A8050E94B7
:100980009A0538F00E94A10520F039F49F3F19F430
:1009900026F40C9497050EF4E095E7FB0C94910572
:1009A000E92F0E94B90558F3BA1762077307840745
:1009B000950720F079F4A6F50C94DB050EF4E0958C
:1009C0000B2EBA2FA02D0B01B90190010C01CA0109
:1009D000A0011124FF27591B99F0593F50F4503EB4
:1009E00068F11A16F040A22F232F342F4427585FA6
:1009F000F3CF469537952795A795F0405395C9F7BE
:100A00007EF41F16BA0B620B730B840BBAF0915075
:100A1000A1F0FF0FBB1F661F771F881FC2F70EC014
:100A2000BA0F621F731F841F48F4879577956795E7
:100A3000B795F7959E3F08F0B0CF9395880F08F0D3
:100A40009927EE0F9795879508950E94C10588F024
:100A50009F5798F0B92F9927B751B0F0E1F0660F82
:100A6000771F881F991F1AF0BA95C9F714C0B130C3
:100A700091F00E94DB05B1E008950C94DB05672F2F
:100A8000782F8827B85F39F0B93FCCF386957795F2
:100A90006795B395D9F73EF49095809570956195DB
:100AA0007F4F8F4F9F4F0895E89409C097FB3EF406
:100AB00090958095709561957F4F8F4F9F4F9923AB
:100AC000A9F0F92F96E9BB279395F6958795779529
:100AD0006795B795F111F8CFFAF4BB0F11F460FFE9
:100AE0001BC06F5F7F4F8F4F9F4F16C0882311F041
:100AF00096E911C0772321F09EE8872F762F05C055
:100B0000662371F096E8862F70E060E02AF09A95EF
:100B1000660F771F881FDAF7880F9695879597F9E4
:100B2000089597F99F6780E870E060E008959FEF6F
:100B300080EC089500240A94161617061806090674
:100B4000089500240A941216130614060506089543
:100B5000092E0394000C11F4882352F0BB0F40F4CB
:100B6000BF2B11F460FF04C06F5F7F4F8F4F9F4F0B
:100B7000089557FD9058440F551F59F05F3F71F08D
:100B80004795880F97FB991F61F09F3F79F08795F4
:100B90000895121613061406551FF2CF4695F1DF7D
:100BA00008C0161617061806991FF1CF869571050D
:100BB000610508940895E894BB2766277727CB0141
:100BC00097F908950E94F5050C94A8050E949A05CE
:100BD00038F00E94A10520F0952311F00C949105A6
:100BE0000C94970511240C94DC050E94B90570F350
:100BF000959FC1F3950F50E0551F629FF001729FC2
:100C0000BB27F00DB11D639FAA27F00DB11DAA1FD0
:100C1000649F6627B00DA11D661F829F2227B00D1D
:100C2000A11D621F739FB00DA11D621F839FA00DA8
:100C3000611D221F749F3327A00D611D231F849FF8
:100C4000600D211D822F762F6A2F11249F5750404F
:100C50009AF0F1F088234AF0EE0FFF1FBB1F661FCA
:100C6000771F881F91505040A9F79E3F510580F093
:100C70000C9491050C94DC055F3FE4F3983ED4F3AB
:100C8000869577956795B795F795E7959F5FC1F737
:100C9000FE2B880F911D9695879597F90895F894E6
:020CA000FFCF84
:00000001FF
