:100000000C9434000C9451000C9451000C94510049
:100010000C94D7010C9451000C9451000C94510095
:100020000C9451000C9451000C9451000C9451000C
:100030000C9451000C94BF000C9451000C9451008E
:100040000C9451000C9451000C9451000C945100EC
:100050000C9451000C949C000C9451000C94510091
:100060000C9451000C94510011241FBECFEFD8E026
:10007000DEBFCDBF11E0A0E0B1E0E2EAFDE002C0EA
:1000800005900D92A630B107D9F721E0A6E0B1E0C6
:1000900001C01D92A231B207E1F70E9407010C9442
:1000A000CF060C940000219A3B98E0E8F0E08081B4
:1000B00082688083E1E8F0E080818A6180838FE359
:1000C0009CE9909387008093860080E29EE4909361
:1000D00089008093880016BC84B5826084BD85B594
:1000E000856085BD83E487BDEAE7F0E080818260BA
:1000F0008083ACE7B0E08C9183668C938081886AC2
:100100008083EBE7F0E080818360808308958091B5
:10011000060181110AC08FE39CE90197F1F700C045
:100120000000809106018823B1F3109206018091AE
:1001300007019091080108951F920F920FB60F9238
:1001400011248F939F93A99A8091780090917900C0
:100150000024880F991F001C880F991F001C892FED
:10016000902D909308018093070181E08093060110
:100170009F918F910F900FBE0F901F9018951F9217
:100180000F920FB60F9211248F939F9380910D01C0
:1001900090910E01019690930E0180930D01809134
:1001A0000D0190910E01049749F4809109019091FD
:1001B0000A0190938B0080938A0022C080910D01E8
:1001C00090910E01059711F42B9A1AC080910D01A0
:1001D00090910E01099749F480910B0190910C01C7
:1001E00090938B0080938A000BC080910D019091B9
:1001F0000E010A9729F410920E0110920D012B980E
:100200009F918F910F900FBE0F901F901895CF93D5
:10021000DF93CDB7DEB7A0970FB6F894DEBF0FBE61
:10022000CDBF0E9453002EE648E060E071EE80E012
:1002300090E00E94420178940F2EF0E0EF2EF1E062
:10024000FF2EF02D8E010F5F1F4F0E9487009F939E
:100250008F93FF92EF921F930F930E94E503C801C3
:100260000E94C8012FEF83ED90E321508040904021
:10027000E1F700C000000F900F900F900F900F90CB
:100280000F90E3CF0F931F93CF93DF93C42FD22F01
:100290008B019C010C52114021093109053D104C84
:1002A0002140310508F067C02BEF2C0F243008F0F7
:1002B00062C0E0ECF0E020812C7F208328E12093D5
:1002C000C100E2ECF0E020811082DC01CB01880F5C
:1002D000991FAA1FBB1F880F991FAA1FBB1F9C0134
:1002E000AD01220F331F441F551F220F331F441F20
:1002F000551F60E074E284EF90E00E94C303215038
:1003000031093093C5002093C400C63071F018F451
:10031000C53031F01BC0C73071F0C83091F016C045
:10032000E2ECF0E08081808311C0E2ECF0E08081BB
:10033000826080830BC0E2ECF0E080818460808387
:1003400005C0E2ECF0E0808186608083D53419F04E
:10035000DF3439F00CC0E2ECF0E080818062808311
:100360000AC0E2ECF0E080818063808304C0E2ECAC
:10037000F0E080818083DF91CF911F910F910895EC
:10038000E0ECF0E0908195FFFDCF8093C6000895EA
:10039000CF93DF93EC018881882331F021960E946E
:1003A000C00189918111FBCFDF91CF9108951F92F8
:1003B0000F920FB60F9211242F933F934F935F9399
:1003C0006F937F938F939F93AF93BF93EF93FF931D
:1003D00080910F01882339F11092B1006091B20031
:1003E00070E080E090E00E94CA0229EE38E44EE816
:1003F0005EE30E9456032AEE34E044E75EE30E9487
:100400002C0220E030E040E251E40E9456030E94BA
:1004100099027093110160931001ECE6F0E0808185
:100420008F7D808308C01092B20086E08093B10077
:1004300081E080930F01FF91EF91BF91AF919F9168
:100440008F917F916F915F914F913F912F910F907D
:100450000FBE0F901F9018955058BB27AA270E94D7
:1004600044020C941C030E940E0338F00E941503F2
:1004700020F039F49F3F19F426F40C940B030EF48A
:10048000E095E7FB0C940503E92F0E942D0358F338
:10049000BA17620773078407950720F079F4A6F569
:1004A0000C944F030EF4E0950B2EBA2FA02D0B01E8
:1004B000B90190010C01CA01A0011124FF27591BA9
:1004C00099F0593F50F4503E68F11A16F040A22FAF
:1004D000232F342F4427585FF3CF46953795279520
:1004E000A795F0405395C9F77EF41F16BA0B620B1F
:1004F000730B840BBAF09150A1F0FF0FBB1F661F66
:10050000771F881FC2F70EC0BA0F621F731F841FA8
:1005100048F4879577956795B795F7959E3F08F0CE
:10052000B0CF9395880F08F09927EE0F9795879590
:1005300008950E94350388F09F5798F0B92F9927A6
:10054000B751B0F0E1F0660F771F881F991F1AF0BE
:10055000BA95C9F714C0B13091F00E944F03B1E0D1
:1005600008950C944F03672F782F8827B85F39F0D0
:10057000B93FCCF3869577956795B395D9F73EF457
:1005800090958095709561957F4F8F4F9F4F0895FF
:10059000E89409C097FB3EF490958095709561951D
:1005A0007F4F8F4F9F4F9923A9F0F92F96E9BB27D3
:1005B0009395F695879577956795B795F111F8CF4F
:1005C000FAF4BB0F11F460FF1BC06F5F7F4F8F4FBA
:1005D0009F4F16C0882311F096E911C0772321F0B0
:1005E0009EE8872F762F05C0662371F096E8862F48
:1005F00070E060E02AF09A95660F771F881FDAF79F
:10060000880F9695879597F9089597F99F6780E8E1
:1006100070E060E008959FEF80EC089500240A9454
:100620001616170618060906089500240A941216CD
:100630001306140605060895092E0394000C11F400
:10064000882352F0BB0F40F4BF2B11F460FF04C0AD
:100650006F5F7F4F8F4F9F4F089557FD9058440F06
:10066000551F59F05F3F71F04795880F97FB991F11
:1006700061F09F3F79F087950895121613061406CE
:10068000551FF2CF4695F1DF08C01616170618065B
:10069000991FF1CF86957105610508940895E89436
:1006A000BB2766277727CB0197F908950E94690336
:1006B0000C941C030E940E0338F00E94150320F0D6
:1006C000952311F00C9405030C940B0311240C9446
:1006D00050030E942D0370F3959FC1F3950F50E0D6
:1006E000551F629FF001729FBB27F00DB11D639FE4
:1006F000AA27F00DB11DAA1F649F6627B00DA11D8A
:10070000661F829F2227B00DA11D621F739FB00D2F
:10071000A11D621F839FA00D611D221F749F33279F
:10072000A00D611D231F849F600D211D822F762F38
:100730006A2F11249F5750409AF0F1F088234AF015
:10074000EE0FFF1FBB1F661F771F881F9150504081
:10075000A9F79E3F510580F00C9405030C945003BB
:100760005F3FE4F3983ED4F3869577956795B79508
:10077000F795E7959F5FC1F7FE2B880F911D969522
:10078000879597F90895A1E21A2EAA1BBB1BFD01BC
:100790000DC0AA1FBB1FEE1FFF1FA217B307E40760
:1007A000F50720F0A21BB30BE40BF50B661F771FB8
:1007B000881F991F1A9469F7609570958095909598
:1007C0009B01AC01BD01CF010895AEE0B0E0EBEEBE
:1007D000F3E00C94A6060D891E8986E08C831A83AB
:1007E00009838FEF9FE79E838D83AE01475E5F4F46
:1007F0006F89788DCE0101960E940704EF81F885FC
:10080000E00FF11F10822E96E4E00C94C206ABE0DC
:10081000B0E0EDE0F4E00C9498066C017B018A01F5
:10082000FC0117821682838181FFCCC1CE01019623
:100830003C01F6019381F70193FD859193FF81912E
:100840007F01882309F4BAC1853239F493FD85917B
:1008500093FF81917F01853229F4B60190E00E94D7
:10086000FE05E7CF912C212C312CFFE1F315D8F0B8
:100870008B3279F038F4803279F08332A1F4232D71
:1008800020611DC08D3261F0803369F4232D216019
:1008900016C0832D8260382EE32DE4603E2E2AC0E0
:1008A000F32DF8601DC037FC2DC020ED280F2A3035
:1008B00040F08E32B9F436FC81C1232D2064322EF3
:1008C00019C036FE06C08AE0989E200D1124922E93
:1008D00011C0EAE02E9E200D1124222EF32DF0628D
:1008E0003F2E08C08C3621F4832D8068382E02C03C
:1008F000883641F4F70193FD859193FF81917F0143
:100900008111B3CF982F9F7D9554933028F40C5FBD
:100910001F4F9FE399830DC0833631F0833771F009
:10092000833509F059C021C0F801808189830E5FA9
:100930001F4F88248394912C530113C02801F2E0A7
:100940004F0E511CF801A080B18036FE03C0692D06
:1009500070E002C06FEF7FEFC5010E94F3054C010C
:100960008201F32DFF773F2E16C0280122E0420EB0
:10097000511CF801A080B18036FE03C0692D70E0E3
:1009800002C06FEF7FEFC5010E94E8054C01F32D17
:10099000F0683F2E820133FC1BC0822D90E0881648
:1009A0009906B0F4B60180E290E00E94FE052A9418
:1009B000F4CFF50137FC859137FE81915F01B601D7
:1009C00090E00E94FE0521102A9421E0821A9108ED
:1009D0008114910471F7E8C0843611F0893641F52D
:1009E000F80137FE07C060817181828193810C5FBD
:1009F0001F4F08C060817181072E000C880B990B76
:100A00000E5F1F4FF32DFF763F2E97FF09C0909585
:100A10008095709561957F4F8F4F9F4FF0683F2E67
:100A20002AE030E0A3010E943A06882E861845C0CD
:100A3000853731F4232D2F7EB22E2AE030E025C0F9
:100A4000932D997FB92E8F36C1F018F4883579F03F
:100A5000B5C0803719F0883721F0B0C0E92FE061C8
:100A6000BE2EB4FE0DC0FB2DF460BF2E09C034FEB7
:100A70000AC0292F2660B22E06C028E030E005C04B
:100A800020E130E002C020E132E0F801B7FE07C00B
:100A900060817181828193810C5F1F4F06C06081EC
:100AA000718180E090E00E5F1F4FA3010E943A0623
:100AB000882E8618FB2DFF773F2E36FE0DC0232D86
:100AC0002E7FA22E891458F434FE0BC032FC09C0CC
:100AD000832D8E7EA82E05C0B82CA32C03C0B82C65
:100AE00001C0B92CA4FE0FC0FE01E80DF11D8081EC
:100AF000803321F49A2D997EA92E09C0A2FE06C04A
:100B0000B394B39404C08A2D867809F0B394A3FCFF
:100B100011C0A0FE06C0B21488F4280C922C9B18B9
:100B20000EC0B21460F4B60180E290E00E94FE05AF
:100B3000B394F7CFB21418F42B1802C0982C212CC0
:100B4000A4FE10C0B60180E390E00E94FE05A2FE64
:100B500017C0A1FC03C088E790E002C088E590E0E0
:100B6000B6010CC08A2D867859F0A1FE02C08BE236
:100B700001C080E2A7FC8DE2B60190E00E94FE0574
:100B8000891438F4B60180E390E00E94FE059A943F
:100B9000F7CF8A94F301E80DF11D8081B60190E052
:100BA0000E94FE058110F5CF222009F442CEB60145
:100BB00080E290E00E94FE052A94F6CFF60186813D
:100BC000978102C08FEF9FEF2B96E2E10C94B40661
:100BD000FC010590615070400110D8F78095909508
:100BE0008E0F9F1F0895FC0161507040019001100D
:100BF000D8F7809590958E0F9F1F08950F931F93A0
:100C0000CF93DF93FB01238121FD03C08FEF9FEF83
:100C10002CC022FF16C0468157812481358142179E
:100C2000530744F4A081B1819D012F5F3F4F318371
:100C300020838C93268137812F5F3F4F3783268314
:100C400014C08B01EC01FB010084F185E02D0995B6
:100C5000892BE1F6D80116968D919C9117970196F4
:100C600017969C938E931697CE01DF91CF911F918B
:100C70000F910895FA01AA27283051F1203181F10E
:100C8000E8946F936E7F6E5F7F4F8F4F9F4FAF4F94
:100C9000B1E03ED0B4E03CD0670F781F891F9A1FA7
:100CA000A11D680F791F8A1F911DA11D6A0F711D5B
:100CB000811D911DA11D20D009F468943F912AE067
:100CC000269F11243019305D3193DEF6CF0108954F
:100CD000462F4770405D4193B3E00FD0C9F7F6CF80
:100CE000462F4F70405D4A3318F0495D31FD405248
:100CF000419302D0A9F7EACFB4E0A69597958795DE
:100D000077956795BA95C9F70097610571050895BC
:100D10009B01AC010A2E0694579547953795279568
:100D2000BA95C9F7620F731F841F951FA01D089500
:100D30002F923F924F925F926F927F928F929F92EB
:100D4000AF92BF92CF92DF92EF92FF920F931F93D9
:100D5000CF93DF93CDB7DEB7CA1BDB0B0FB6F8948A
:100D6000DEBF0FBECDBF09942A88398848885F84CA
:100D70006E847D848C849B84AA84B984C884DF803B
:100D8000EE80FD800C811B81AA81B981CE0FD11D1F
:100D90000FB6F894DEBF0FBECDBFED010895F894F5
:020DA000FFCF83
:060DA20025750D0A00009A
:00000001FF
