:100000000C9434000C9433020C9446000C9446007B
:100010000C94F0040C94B1030C9446000C9446002C
:100020000C9446000C9446000C9446000C94460038
:100030000C9446000C9420010C9446000C9446004D
:100040000C9446000C9446000C9446000C94460018
:100050000C9446000C9488000C9446000C944600C6
:100060000C94B8040C94460011241FBECFEFD8E0C6
:10007000DEBFCDBF21E0A0E0B1E001C01D92AA32F9
:10008000B207E1F70E9406040C9408070C940000E4
:10009000219A3B98E0E8F0E0808182688083E1E883
:1000A000F0E080818A6180838FE39CE990938700F0
:1000B0008093860080E29EE490938900809388007C
:1000C00016BC84B5826084BD85B5856085BD83E43A
:1000D00087BDEAE7F0E0808182608083ACE7B0E032
:1000E0008C9183628C938081886A8083EBE7F0E057
:1000F000808183608083089515BCE0E8F0E0808112
:100100008F778083EAE7F0E080818F77808308959E
:100110001F920F920FB60F9211248F939F93A99A5B
:1001200080917800909179000024880F991F001C1D
:10013000880F991F001C892F902D909302018093A6
:10014000010181E0809300019F918F910F900FBE7C
:100150000F901F90189510920C0110920B0184B112
:100160008C6084B9E0E8F0E0808182628083E1E81D
:10017000F0E080818A6180838FE39CE9909387001F
:10018000809386008FE99FE090930A018093090194
:100190008FEC97E09093080180930701809109010B
:1001A00090910A01909304018093030180910701CB
:1001B000909108019093060180930501EFE6F0E02D
:1001C00080818160808308958091090190910A0166
:1001D00090930601809305012FEF83EC99E0215065
:1001E00080409040E1F700C00000809107019091AD
:1001F000080190930401809303012FEF83EC99E0B1
:10020000215080409040E1F700C00000809109013A
:1002100090910A0190930401809303012FEF83ECE6
:1002200099E0215080409040E1F700C000008091AB
:1002300007019091080190930601809305010895AC
:100240001F920F920FB60F9211248F939F9380915C
:100250000B0190910C01019690930C0180930B017E
:1002600080910B0190910C01049749F48091030156
:100270009091040190938B0080938A0022C080911A
:100280000B0190910C01059711F42B9A1AC08091E3
:100290000B0190910C01099749F48091050190910F
:1002A000060190938B0080938A000BC080910B0114
:1002B00090910C010A9729F410920C0110920B01F5
:1002C0002B989F918F910F900FBE0F901F901895B4
:1002D00090911E01913041F49091200190931F0163
:1002E00092E090931E0103C091E090931E018795C8
:1002F000882787958093200187E080931D010895CA
:10030000E9E6F0E080818260808380818E7F808357
:1003100080911E01823021F483E080931E010895B4
:1003200010921E010895909119018091180198135F
:1003300003C080911701089581E008958093200102
:1003400010921D0181E080931E0180911A01882383
:1003500009F44CC010921A01E8E6F0E080818B7F2E
:1003600080832BB18091200190E080959095880F3B
:10037000892F881F990B82959295907F9827807F6F
:1003800098278071922F9F7E890F8AB92BB1809117
:10039000200190E0880F892F881F990B82959295F4
:1003A000907F9827807F98278071922F9F7E890F5A
:1003B0008BB980911D018F5F80931D018091200179
:1003C00029B190E0880F892F881F990B829592950B
:1003D000907F9827807F9827207130E082179307BD
:1003E00069F7E8E6F0E080818460808352985A9A49
:1003F00008950E9493018823E1F30E9493018823CA
:10040000B9F080911701811110921701E091190143
:10041000809119018F5F80931901809119018A30B1
:1004200010F010921901F0E0E35FFE4F8081089513
:1004300080E00895E9E6F0E0808182608083808139
:1004400081608083E8E6F0E08081806180936D00C8
:10045000808184608083E89A8AB18B7E8AB98BB16F
:1004600084618BB908951F920F920FB60F921124D9
:100470002F933F934F935F936F937F938F939F93AC
:10048000AF93BF93EF93FF9380911B01882309F4EF
:1004900057C1809169008370833009F0BBC080919F
:1004A0001D01883040F010921D018AB18B7E8AB9FF
:1004B0008BB184618BB980912101873050F566E062
:1004C00070E0681B710921E030E0A901062E02C02E
:1004D000440F551F0A94E2F799B1542F509520917B
:1004E00022015223292F30E0359527953595279500
:1004F000359527953595279502C0220F331F6A95AC
:10050000E2F72423250F209322018F5F809321019E
:1005100017C190912201903709F012C18830B8F4C8
:100520008F5F8093210189B1909123019E7F8295F5
:100530008170890F80932301882319F081E08093D3
:100540001A0180E00E9468010E948001F9C0813197
:1005500008F0F6C06FE070E0681B710921E030E040
:10056000A901062E02C0440F551F0A94E2F799B163
:10057000542F509520911C015223292F30E035959E
:10058000279535952795359527953595279502C05B
:10059000220F331F6A95E2F72423250F20931C01B5
:1005A0008F5F80932101803109F0CAC080911701CB
:1005B000882369F080911901809119018F5F8093E0
:1005C0001901809119018A3010F010921901E091FF
:1005D0001801809118018F5F809318018091180194
:1005E0008A3010F010921801F0E0E35FFE4F208394
:1005F0009091180180911901981303C081E08093B4
:10060000170180E00E9468010E94800188E08093C9
:10061000210196C0809169008370823009F090C0FA
:1006200030911D01383008F453C080911E01825072
:10063000823090F581E080931E0180931D018091AE
:100640001F01809320012AB18091200190E08095C4
:100650009095880F892F881F990B82959295907F8E
:100660009827807F98278071922F9F7E890F8AB963
:100670002BB18091200190E0880F892F881F990B62
:1006800082959295907F9827807F98278071922FEE
:100690009F7E890F8BB904C010921E0154985C9AFA
:1006A00080911A01882359F080911E018150823077
:1006B00018F410921A0144C0529A5A9841C0E9E6BF
:1006C000F0E080818260808380818160808338C097
:1006D0002AB18091200190E08095909547E050E00C
:1006E000BA01631B710902C0959587956A95E2F777
:1006F00082959295907F9827807F98278071922F7E
:100700009F7E890F8AB92BB18091200190E03091B2
:100710001D01431B510902C0959587954A95E2F743
:1007200082959295907F9827807F98278071922F4D
:100730009F7E890F8BB980911D018F5F80931D0172
:10074000FF91EF91BF91AF919F918F917F916F91A9
:100750005F914F913F912F910F900FBE0F901F907F
:1007600018951F920F920FB60F9211248F93EF934B
:10077000FF934A9B16C04C9B11C010921B01109214
:100780001A011092220110922101E9E6F0E0808125
:100790008260808380818160808303C081E0809358
:1007A0001B01FF91EF918F910F900FBE0F901F9043
:1007B00018950E941A0208950E949301882329F136
:1007C0000E94F901853071F028F4833041F08430C3
:1007D00091F00895863049F0873051F008950E94D5
:1007E000130408950E94210408950E94240408958A
:1007F0000E94270408950E941A04E9EFF0E031975F
:10080000F1F700C000000E949E01089578940E94B4
:10081000D9030E94DA040E9451050E94AB00209A7D
:100820000E94DC03FDCF0E94E3040E94E4000E94CA
:10083000EB0408950E945B05863091050CF0289A20
:1008400008950E94480008950E947C000895289809
:1008500008959091260191114CC091E0909326014A
:1008600094EA9093BC00ECEBF0E090819923ECF7D4
:100870009091B900987F983059F5880F8093BB000C
:1008800084E88093BC00ECEBF0E080818823ECF7F7
:100890008091B900887F8032D9F06093BB0084E8F2
:1008A0008093BC00ECEBF0E080818823ECF7809132
:1008B000B900887F803361F084E98093BC00ECEB61
:1008C000F0E0808184FDFDCF1092260180E0089544
:1008D00084E98093BC00ECEBF0E0808184FDFDCFE7
:1008E000ECEBF0E080818B7F80831092260181E029
:1008F000089583E0089590912601911137C091E009
:100900009093260194EA9093BC00ECEBF0E0908188
:100910009923ECF79091B900987F9830B1F4880F43
:100920008F5F8093BB0084E88093BC00ECEBF0E029
:1009300080818823ECF78091B900887F883429F082
:1009400085E88093BC0080E0089584E98093BC0032
:10095000ECEBF0E0808184FDFDCFECEBF0E08081FA
:100960008B7F80831092260182E0089583E00895B2
:100970001F920F920FB60F9211248F93EF93FF9354
:100980008091BB008093250181E08093240184E95C
:100990008093BC007894ECEBF0E0808184FDFDCF87
:1009A00010922601FF91EF918F910F900FBE0F9043
:1009B0001F9018951092B80083E08093B90084E0EE
:1009C0008093BC00089561E080E70E94290480E7DD
:1009D0000E947B04089562E080E70E942904089544
:1009E0001F920F920FB60F9211242F933F934F93A4
:1009F0005F936F937F938F939F93AF93BF93EF9387
:100A0000FF9380912701882399F11092B1006091A2
:100A1000B20070E080E090E00E940F0629EE38E41A
:100A20004EE85EE30E949B062AEE34E044E75EE374
:100A30000E94710520E030E040E251E40E949B06F4
:100A40000E94DE05709329016093280120912801FE
:100A50003091290184E690E0821B930B9093290149
:100A600080932801ECE6F0E080818B7F808308C0D2
:100A70001092B20086E08093B10081E0809327015C
:100A8000FF91EF91BF91AF919F918F917F916F9166
:100A90005F914F913F912F910F900FBE0F901F903C
:100AA0001895399A3A981092B000E8E6F0E0808103
:100AB00082608083089510922701ECE6F0E0808147
:100AC00084608083419A85E38A95F1F7000041981C
:100AD0008FE39CE90197F1F700C0000080E490E00B
:100AE00008955058BB27AA270E9489050C946106D7
:100AF0000E94530638F00E945A0620F039F49F3FB6
:100B000019F426F40C9450060EF4E095E7FB0C94CF
:100B10004A06E92F0E94720658F3BA176207730754
:100B20008407950720F079F4A6F50C9494060EF44A
:100B3000E0950B2EBA2FA02D0B01B90190010C01ED
:100B4000CA01A0011124FF27591B99F0593F50F405
:100B5000503E68F11A16F040A22F232F342F44275D
:100B6000585FF3CF469537952795A795F040539555
:100B7000C9F77EF41F16BA0B620B730B840BBAF025
:100B80009150A1F0FF0FBB1F661F771F881FC2F790
:100B90000EC0BA0F621F731F841F48F487957795A4
:100BA0006795B795F7959E3F08F0B0CF9395880F5E
:100BB00008F09927EE0F9795879508950E947A0679
:100BC00088F09F5798F0B92F9927B751B0F0E1F00E
:100BD000660F771F881F991F1AF0BA95C9F714C0BE
:100BE000B13091F00E949406B1E008950C949406FF
:100BF000672F782F8827B85F39F0B93FCCF38695F7
:100C000077956795B395D9F73EF490958095709553
:100C100061957F4F8F4F9F4F0895E89409C097FBD0
:100C20003EF490958095709561957F4F8F4F9F4FC3
:100C30009923A9F0F92F96E9BB279395F695879507
:100C400077956795B795F111F8CFFAF4BB0F11F4CA
:100C500060FF1BC06F5F7F4F8F4F9F4F16C0882371
:100C600011F096E911C0772321F09EE8872F762FA7
:100C700005C0662371F096E8862F70E060E02AF0E8
:100C80009A95660F771F881FDAF7880F96958795D4
:100C900097F9089597F99F6780E870E060E00895FC
:100CA0009FEF80EC089500240A9416161706180684
:100CB0000906089500240A94121613061406050660
:100CC0000895092E0394000C11F4882352F0BB0FF1
:100CD00040F4BF2B11F460FF04C06F5F7F4F8F4F54
:100CE0009F4F089557FD9058440F551F59F05F3F8F
:100CF00071F04795880F97FB991F61F09F3F79F03E
:100D000087950895121613061406551FF2CF4695BF
:100D1000F1DF08C0161617061806991FF1CF869541
:100D20007105610508940895E894BB276627772725
:100D3000CB0197F908950E94AE060C9461060E94BB
:100D4000530638F00E945A0620F0952311F00C94B7
:100D50004A060C94500611240C9495060E947206C3
:100D600070F3959FC1F3950F50E0551F629FF001FE
:100D7000729FBB27F00DB11D639FAA27F00DB11D17
:100D8000AA1F649F6627B00DA11D661F829F2227A0
:100D9000B00DA11D621F739FB00DA11D621F839F27
:100DA000A00D611D221F749F3327A00D611D231FFD
:100DB000849F600D211D822F762F6A2F11249F574B
:100DC00050409AF0F1F088234AF0EE0FFF1FBB1F4E
:100DD000661F771F881F91505040A9F79E3F51050D
:100DE00080F00C944A060C9495065F3FE4F3983E1D
:100DF000D4F3869577956795B795F795E7959F5FB7
:100E0000C1F7FE2B880F911D9695879597F9089548
:040E1000F894FFCF84
:00000001FF
