:100000000C9434000C944F010C9446000C94460060
:100010000C9446000C9446000C9446000C94460048
:100020000C9446000C9446000C9446000C94460038
:100030000C9446000C9446000C9446000C94460028
:100040000C9446000C9446000C9446000C94460018
:100050000C9446000C9446000C9446000C94460008
:100060000C9446000C94460011241FBECFEFD8E03C
:10007000DEBFCDBF21E0A0E0B1E001C01D92A630FF
:10008000B207E1F70E9448000C942B030C94000087
:100090007894259A2EE448E060E071EE80E090E0EC
:1000A0000E949400C0E010E0D1E0C0900201D09026
:1000B0000301E0900401F090050120E030E048ECFD
:1000C00051E4C701B6010E9497021816A4F4C111A9
:1000D00020C00EC0C1111AC00E9412012FEF81EE84
:1000E00094E0215080409040E1F700C00000DDCF57
:1000F0002D9ACD2FF1CF20E030E040E251E4C7014E
:10010000B6010E94E00188232CF3E6CF2D98C12F81
:10011000E3CF20E030E040E251E4C701B6010E94A5
:10012000E00188239CF3D8CF0F931F93CF93DF93E5
:10013000C42FD22F8B019C010C521140210931098F
:10014000053D104C2140310508F067C02BEF2C0F06
:10015000243008F062C0E0ECF0E020812C7F2083A6
:1001600028E12093C100E2ECF0E020811082DC0164
:10017000CB01880F991FAA1FBB1F880F991FAA1FA9
:10018000BB1F9C01AD01220F331F441F551F220FBF
:10019000331F441F551F60E074E284EF90E00E941B
:1001A0000903215031093093C5002093C400C630A3
:1001B00071F018F4C53031F01BC0C73071F0C83091
:1001C00091F016C0E2ECF0E08081808311C0E2EC97
:1001D000F0E08081826080830BC0E2ECF0E08081FF
:1001E0008460808305C0E2ECF0E0808186608083DB
:1001F000D53419F0DF3439F00CC0E2ECF0E0808146
:10020000806280830AC0E2ECF0E0808180638083BA
:1002100004C0E2ECF0E080818083DF91CF911F91F8
:100220000F9108955E9A85E38A95F1F700005E9834
:10023000089580910001882331F115BC86B5809323
:10024000010166B570E080E090E00E94E70129EED0
:1002500038E44EE85EE30E949C0225EC3EEF42E764
:100260005EE30E9473016093020170930301809327
:1002700004019093050110920001E9E6F0E080810D
:1002800081608083089516BC84E085BD81E0809301
:100290000001E9E6F0E080818E7F808308951F925F
:1002A0000F920FB60F9211242F933F934F935F93AA
:1002B0006F937F938F939F93AF93BF93EF93FF932E
:1002C0000E941901FF91EF91BF91AF919F918F9182
:1002D0007F916F915F914F913F912F910F900FBE42
:1002E0000F901F9018955058BB27AA270E948B018A
:1002F0000C945D020E944F0238F00E94560220F0DA
:1003000039F49F3F19F426F40C944C020EF4E09556
:10031000E7FB0C944602E92F0E946E0258F3BA17CD
:10032000620773078407950720F079F4A6F50C940B
:1003300090020EF4E0950B2EBA2FA02D0B01B901FF
:1003400090010C01CA01A0011124FF27591B99F04B
:10035000593F50F4503E68F11A16F040A22F232F57
:10036000342F4427585FF3CF469537952795A795A7
:10037000F0405395C9F77EF41F16BA0B620B730B4E
:10038000840BBAF09150A1F0FF0FBB1F661F771FBF
:10039000881FC2F70EC0BA0F621F731F841F48F474
:1003A000879577956795B795F7959E3F08F0B0CFFD
:1003B0009395880F08F09927EE0F979587950895E4
:1003C0000E94220208F481E00895E89409C097FB96
:1003D0003EF490958095709561957F4F8F4F9F4F1C
:1003E0009923A9F0F92F96E9BB279395F695879560
:1003F00077956795B795F111F8CFFAF4BB0F11F423
:1004000060FF1BC06F5F7F4F8F4F9F4F16C08823C9
:1004100011F096E911C0772321F09EE8872F762FFF
:1004200005C0662371F096E8862F70E060E02AF040
:100430009A95660F771F881FDAF7880F969587952C
:1004400097F90895990F0008550FAA0BE0E8FEEF01
:1004500016161706E807F907C0F012161306E40788
:10046000F50798F0621B730B840B950B39F40A2681
:1004700061F0232B242B252B21F408950A2609F45F
:10048000A140A6958FEF811D811D089597F99F6763
:1004900080E870E060E008959FEF80EC089500240C
:1004A0000A941616170618060906089500240A94D9
:1004B00012161306140605060895092E0394000C5F
:1004C00011F4882352F0BB0F40F4BF2B11F460FFEE
:1004D00004C06F5F7F4F8F4F9F4F089557FD905817
:1004E000440F551F59F05F3F71F04795880F97FBF8
:1004F000991F61F09F3F79F08795089512161306B2
:100500001406551FF2CF4695F1DF08C016161706E0
:100510001806991FF1CF8695710561050894089515
:10052000E894BB2766277727CB0197F908950E94A7
:10053000220208F48FEF08950E94AF020C945D022E
:100540000E944F0238F00E94560220F0952311F0CD
:100550000C9446020C944C0211240C9491020E94BB
:100560006E0270F3959FC1F3950F50E0551F629F87
:10057000F001729FBB27F00DB11D639FAA27F00DFC
:10058000B11DAA1F649F6627B00DA11D661F829F23
:100590002227B00DA11D621F739FB00DA11D621F08
:1005A000839FA00D611D221F749F3327A00D611D25
:1005B000231F849F600D211D822F762F6A2F112407
:1005C0009F5750409AF0F1F088234AF0EE0FFF1F3A
:1005D000BB1F661F771F881F91505040A9F79E3F91
:1005E000510580F00C9446020C9491025F3FE4F3B5
:1005F000983ED4F3869577956795B795F795E795E7
:100600009F5FC1F7FE2B880F911D9695879597F9EF
:100610000895A1E21A2EAA1BBB1BFD010DC0AA1F43
:10062000BB1FEE1FFF1FA217B307E407F50720F05B
:10063000A21BB30BE40BF50B661F771F881F991FD6
:100640001A9469F760957095809590959B01AC011F
:0A065000BD01CF010895F894FFCF1B
:00000001FF
