S015000050616E436F6E74726F6C6C65722E73726563CC
S11300000C9434000C94C7020C9451000C94180105
S11300100C9451000C9438040C9451000C9451002D
S11300200C9451000C94CE040C9451000C94510087
S11300300C9451000C94DB050C9451000C94510069
S11300400C9451000C9451000C9451000C945100E8
S11300500C9451000C9454010C9451000C945100D4
S11300600C9451000C94510011241FBECFEFD8E022
S1130070DEBFCDBF11E0A0E0B1E0EAE5F0E102C0EF
S113008005900D92A230B107D9F721E0A2E0B1E0CA
S113009001C01D92AA32B207E1F70E9486050C94B2
S11300A02B080C94000090911F01913041F4909121
S11300B021019093200192E090931F0103C091E0ED
S11300C090931F018795882787958093210187E066
S11300D080931E010895E9E6F0E0808182608083C8
S11300E080818E7F808380911F01823021F483E0A0
S11300F080931F01089510921F01089520912901F2
S11301002223F1F08536910570F4DC0120E93DEFFE
S11301104FEF5FEF0E9411086D5D7B408F4F9F4F43
S11301200E94D70604C060E070E086EC92E40E946E
S113013088060E94A60670938B0060938A00089537
S11301408536910570F4DC0120E93DEF4FEF5FEF58
S11301500E9411086D5D7B408F4F9F4F0E94D70610
S113016004C060E070E086EC92E40E9488060E947D
S1130170A6067093890060938800089561111FC0DA
S1130180853658F4682F70E0660F771F072E000C31
S1130190880B990B0E94D70604C060E070E088E4E5
S11301A093E40E9488069B01AC0160E070E08FE755
S11301B093E40E941B060E94A60667BD0895853637
S11301C058F4682F70E0660F771F072E000C880B19
S11301D0990B0E94D70604C060E070E088E493E4C1
S11301E00E9488069B01AC0160E070E08FE793E415
S11301F00E941B060E94A60668BD08952098249AB2
S113020085B18E7E85B9E8E6F0E0808181608083E7
S1130210EBE6F0E08081816080830895809106019F
S1130220882321F02C9A1092060108952C980895A1
S11302301F920F920FB60F9211248F939F93189BC6
S113024006C090910A0181E0892780930A019F9159
S11302508F910F900FBE0F901F901895E4E6F0E079
S113026080818E7F808387B18C7F87B980E480937F
S11302707C00EAE7F0E080818F68808384B1866047
S113028084B983E294EF90938900809388009093DB
S11302908B0080938A00A0E8B0E08C91806F8C93EF
S11302A0808180648083089578941F920F920FB6A2
S11302B00F9211248F929F92AF92BF92CF92DF92AE
S11302C0EF92FF922F933F934F935F936F937F939C
S11302D08F939F93AF93BF93EF93FF9320917800F5
S11302E080917900837090E0982F8827820F911D68
S11302F020912901222369F09C01225A33402F3195
S1130300310520F421E0209309010FC01092090166
S11303100CC09C01225A33402F31310520F421E0D6
S11303202093080102C010920801209109012223A0
S113033019F02091080102C020E030E021702093E0
S1130340070120910A0121110DC01092250110927C
S11303502601109227011092280180E090E00E946B
S11303607E004EC061EB73E0681B790B072E000C16
S1130370880B990B0E94D7066B017C0180902501A4
S113038090902601A0902701B090280120E030E051
S1130390A9010E94A407A50194010E941C06609370
S11303A02501709326018093270190932801809062
S11303B0250190902601A0902701B090280125ECFA
S11303C030E240E85FE3C701B6010E94A4076B0175
S11303D07C012FE632E143E85AE3C501B4010E94EF
S11303E0A4079B01AC01C701B6010E941C060E9430
S11303F09F06CB01992314F480E090E00E947E00D4
S11304009091290181E0982790932901ECE7F0E08D
S1130410908189278083EAE7F0E08081806480838B
S1130420FF91EF91BF91AF919F918F917F916F91C8
S11304305F914F913F912F91FF90EF90DF90CF907C
S1130440BF90AF909F908F900F900FBE0F901F9012
S1130450189590911A0180911901981303C0809105
S11304601801089581E008958093210110921E01DE
S113047081E080931F0180911B01882309F44AC005
S113048010921B01E8E6F0E080818B7F80832BB122
S11304908091210190E080959095880F892F881F85
S11304A0990B82959295907F9827807F98278071E9
S11304B0922F9F7E890F8AB92BB180912101881FC9
S11304C08827881F90E082959295907F9827807F57
S11304D098278071922F9F7E890F8BB980911E017E
S11304E08F5F80931E018091210129B1881F882785
S11304F0881F90E082959295907F9827807F982717
S1130500207130E08217930771F7E8E6F0E080810C
S11305108460808352985A9A08950E9429028823FD
S1130520E1F30E9429028823B9F080911801811116
S113053010921801E0911A0180911A018F5F809343
S11305401A0180911A018A3010F010921A01F0E019
S1130550E25FFE4F8081089580E00895E9E6F0E0CF
S1130560808182608083808181608083E8E6F0E01E
S11305708081806180936D00808184608083E89AAB
S11305808AB18B7E8AB98BB184618BB908951F922D
S11305900F920FB60F9211242F933F934F935F93B3
S11305A06F937F938F939F93AF93BF93EF93FF9337
S11305B080911C01882309F44AC1809169008370E9
S11305C0833009F0AFC080911E01883040F0109252
S11305D01E018AB18B7E8AB98BB184618BB98091FB
S11305E02201873020F566E070E0681B710921E084
S11305F030E0A901062E02C0440F551F0A94E2F709
S113060099B1542F509520912301522392959F70B4
S1130610292F30E002C0220F331F6A95E2F724230A
S1130620250F209323018F5F8093220110C19091A5
S11306302301903709F00BC18830B8F48F5F8093A1
S1130640220189B1909124019E7F82958170890F46
S113065080932401882319F081E080931B0180E0BA
S11306600E9453000E946B00F2C0813108F0EFC079
S11306706FE070E0681B710921E030E0A901062EEB
S113068002C0440F551F0A94E2F799B1542F5095B4
S113069020911D01522392959F70292F30E002C0B2
S11306A0220F331F6A95E2F72423250F20931D019F
S11306B08F5F80932201803109F0C9C080911801B5
S11306C0882369F080911A0180911A018F5F8093C9
S11306D01A0180911A018A3010F010921A01E091E7
S11306E01901809119018F5F80931901809119017B
S11306F08A3010F010921901F0E0E25FFE4F20837F
S11307009091190180911A01981303C081E080939C
S1130710180180E00E9453000E946B0088E08093DF
S1130720220195C0809169008370823009F08FC0E6
S113073030911E01383008F452C080911F0182505C
S1130740823088F581E080931F0180931E0180919F
S11307502001809321012AB18091210190E08095AC
S11307609095880F892F881F990B82959295907F79
S11307709827807F98278071922F9F7E890F8AB94E
S11307802BB180912101881F8827881F90E08295D2
S11307909295907F9827807F98278071922F9F7ED3
S11307A0890F8BB904C010921F0154985C9A8091F0
S11307B01B01882359F080911F018150823018F465
S11307C010921B0144C0529A5A9841C0E9E6F0E0E5
S11307D080818260808380818160808338C02AB177
S11307E08091210190E08095909547E050E0BA0116
S11307F0631B710902C0959587956A95E2F7829506
S11308009295907F9827807F98278071922F9F7E62
S1130810890F8AB92BB18091210190E030911E019A
S1130820431B510902C0959587954A95E2F7829535
S11308309295907F9827807F98278071922F9F7E32
S1130840890F8BB980911E018F5F80931E01FF91E8
S1130850EF91BF91AF919F918F917F916F915F9134
S11308604F913F912F910F900FBE0F901F901895AD
S11308701F920F920FB60F9211248F93EF93FF9351
S11308804A9B16C04C9B11C010921C0110921B0174
S11308901092230110922201E9E6F0E08081826047
S11308A0808380818160808303C081E080931C0108
S11308B0FF91EF918F910F900FBE0F901F9018959D
S11308C01F93CF93DF938AB188688AB987B1806315
S11308D087B9559A569A5D985E985B9A5F9A449A3E
S11308E0459A84B58F7C84BD84B58F7384BDC4E67A
S11308F0D0E088818F7D888311E014BD84E085BDBC
S113090060E080E00E94BE0061E080E00E94BE00E2
S113091088818F7B888383E08093B00088E0809314
S1130920B10089EF8093B30010937000DF91CF91F1
S11309301F91089510920501109204011092010173
S1130940089510920B0160910B0181E20E94BE0098
S11309505B9A5F9884B5806384BD10920D011092F8
S11309600C01E1EBF0E0808185608083089581E0F3
S113097080930B0160910B0181E20E94BE00449AB6
S1130980459884B5806C84BD10920D0110920C01C1
S1130990E1EBF0E080818560808308951F920F92DF
S11309A00FB60F9211242F933F934F935F936F933E
S11309B07F938F939F93AF93BF93EF93FF93809114
S11309C00C0190910D019C012F5F3F4F30930D015D
S11309D020930C01863D26E0920771F120F4883EB5
S11309E0934051F06DC08E3B2AE0920729F08C3A77
S11309F09D4009F447C064C080910B0181110EC071
S1130A0084B58F7C84BD60910B0184E60E94BE0096
S1130A105B985F9884B5806384BD52C084B58F733E
S1130A2084BD60910B0184E60E94BE004498459801
S1130A3084B5806C84BD44C080910B01811114C0C5
S1130A4084B58F7C84BD60910B0182E40E94BE005A
S1130A505B985F9A84B5806384BD10920301109201
S1130A600201109200012CC084B58F7384BD609183
S1130A700B0182E40E94BE004498459A84B5806CC0
S1130A8084BD1EC080910B01811109C084B58F7C87
S1130A9084BD5B9A5F9A81E0809301010AC084B5AA
S1130AA08F7384BD449A459A81E0809306018093B4
S1130AB00001E1EBF0E080818A7F80831092B20034
S1130AC0FF91EF91BF91AF919F918F917F916F9122
S1130AD05F914F913F912F910F900FBE0F901F90F8
S1130AE01895E4E6F0E08081877F808382E080933C
S1130AF080008CE18093810083E294EF90938700DF
S1130B008093860081E080936F00089578940E941A
S1130B1071050E94FE000E94AE020E942E010E94F6
S1130B206004239A2B98D0E010E0CFEF00E0FF247C
S1130B30FA94EE24E39403C0CF2D1E2DD02F809180
S1130B40040190910501059711F40E94A10480917C
S1130B500201909103010A9711F40E94B7040E94C4
S1130B602902882319F00E948D02C82F112369F0ED
S1130B7080910101882349F080910701882329F09D
S1130B80809101010E943402102FDD2371F00E9434
S1130B909A040BC0802F0E943402CF2D04C02B9ADC
S1130BA0CF2DDE2DCCCFD02FCACFC13029F290F378
S1130BB0C230A9F3F8CF1F920F920FB60F921124EF
S1130BC02F933F934F935F936F937F938F939F9351
S1130BD0AF93BF93EF93FF93909101012091040190
S1130BE03091050181E09827290F311D30930501CB
S1130BF0209304019091000120910201309103019E
S1130C008927A901480F511D509303014093020104
S1130C100E940E01FF91EF91BF91AF919F918F912F
S1130C207F916F915F914F913F912F910F900FBEE4
S1130C300F901F9018955058BB27AA270E9433067F
S1130C400C9452070E94440738F00E944B0720F08E
S1130C5039F49F3F19F426F40C9441070EF4E095FF
S1130C60E7FB0C941207E92F0E94630758F3BA17A5
S1130C70620773078407950720F079F4A6F50C94AE
S1130C809D070EF4E0950B2EBA2FA02D0B01B90190
S1130C9090010C01CA01A0011124FF27591B99F0EE
S1130CA0593F50F4503E68F11A16F040A22F232FFA
S1130CB0342F4427585FF3CF469537952795A7954A
S1130CC0F0405395C9F77EF41F16BA0B620B730BF1
S1130CD0840BBAF09150A1F0FF0FBB1F661F771F62
S1130CE0881FC2F70EC0BA0F621F731F841F48F417
S1130CF0879577956795B795F7959E3F08F0B0CFA0
S1130D009395880F08F09927EE0F97958795089586
S1130D100E94850790F09F3748F4911116F40C94C3
S1130D209E0760E070E080E89FE3089526F01B16BC
S1130D30611D711D811D0C9418070C9433070E94CA
S1130D40A6066894B1110C949E0708950E946B073F
S1130D5088F09F5798F0B92F9927B751B0F0E1F078
S1130D60660F771F881F991F1AF0BA95C9F714C028
S1130D70B13091F00E949D07B1E008950C949D0755
S1130D80672F782F8827B85F39F0B93FCCF3869561
S1130D9077956795B395D9F73EF4909580957095BE
S1130DA061957F4F8F4F9F4F0895E89409C097FB3B
S1130DB03EF490958095709561957F4F8F4F9F4F2E
S1130DC09923A9F0F92F96E9BB279395F695879572
S1130DD077956795B795F111F8CFFAF4BB0F11F435
S1130DE060FF1BC06F5F7F4F8F4F9F4F16C08823DC
S1130DF011F096E911C0772321F09EE8872F762F12
S1130E0005C0662371F096E8862F70E060E02AF052
S1130E109A95660F771F881FDAF7880F969587953E
S1130E2097F9089597F99F6780E870E060E0089566
S1130E30882371F4772321F09850872B762F07C0ED
S1130E40662311F499270DC09051862B70E060E061
S1130E502AF09A95660F771F881FDAF7880F969500
S1130E60879597F908959F3F31F0915020F4879525
S1130E7077956795B795880F911D9695879597F9FE
S1130E8008959FEF80EC089500240A94161617061F
S1130E9018060906089500240A9412161306140667
S1130EA005060895092E0394000C11F4882352F0CA
S1130EB0BB0F40F4BF2B11F460FF04C06F5F7F4F82
S1130EC08F4F9F4F089557FD9058440F551F59F069
S1130ED05F3F71F04795880F97FB991F61F09F3F23
S1130EE079F087950895121613061406551FF2CF4C
S1130EF04695F1DF08C0161617061806991FF1CF9C
S1130F00869571056105089408950E946B07A0F009
S1130F10BEE7B91788F4BB279F3860F41616B11DD5
S1130F20672F782F8827985FF7CF869577956795F1
S1130F30B11D93959639C8F30895E894BB276627A5
S1130F407727CB0197F908950E94B7070C945207AD
S1130F500E94440738F00E944B0720F0952311F0BB
S1130F600C9412070C94410711240C949E070E94C0
S1130F70630770F3959FC1F3950F50E0551F629F6F
S1130F80F001729FBB27F00DB11D639FAA27F00DDE
S1130F90B11DAA1F649F6627B00DA11D661F829F05
S1130FA02227B00DA11D621F739FB00DA11D621FEA
S1130FB0839FA00D611D221F749F3327A00D611D07
S1130FC0231F849F600D211D822F762F6A2F1124E9
S1130FD09F5750409AF0F1F088234AF0EE0FFF1F1C
S1130FE0BB1F661F771F881F91505040A9F79E3F73
S1130FF0510580F00C9412070C949E075F3FE4F3B4
S1131000983ED4F3869577956795B795F795E795C8
S11310109F5FC1F7FE2B880F911D9695879597F9D1
S113102008950E941C08A59F900DB49F900DA49F45
S1131030800D911D11240895A29FB001B39FC0019A
S1131040A39F700D811D1124911DB29F700D811DF0
S10D10501124911D0895F894FFCFB8
S105105A01018E
S9030000FC
