:100000000C9434000C941B010C9446000C94460094
:100010000C9446000C9497020C9446000C944600F5
:100020000C9446000C9446000C9446000C94460038
:100030000C9446000C9446000C9446000C94460028
:100040000C9446000C9446000C9446000C94460018
:100050000C9446000C9446000C9446000C94460008
:100060000C9462030C94460011241FBECFEFD8E01D
:10007000DEBFCDBF21E0A0E0B1E001C01D92A33101
:10008000B207E1F70E9484030C945F040C94000013
:1000900090910B0180910C01981303C080910D0188
:1000A000089581E0089590910801992321F090919D
:1000B00009019923C1F31092090180930301109261
:1000C000060181E08093050180910A01882309F4EB
:1000D0004AC010920A01E8E6F0E080818B7F8083BD
:1000E0002BB18091030190E080959095880F892F26
:1000F000881F990B82959295907F9827807F9827EB
:100100008071922F9F7E890F8AB92BB18091030154
:10011000881F8827881F90E082959295907F982766
:10012000807F98278071922F9F7E890F8BB9809155
:1001300006018F5F809306018091030129B1881F1A
:100140008827881F90E082959295907F9827807FDE
:100150009827207130E08217930771F7E8E6F0E006
:1001600080818460808352985A9A08950E94480042
:100170008823E1F30E9448008823B9F080910D01A3
:10018000811110920D01E0910B0180910B018F5FA5
:1001900080930B0180910B01823010F010920B01C3
:1001A000F0E0E25FFE4F8081089580E00895E9E687
:1001B000F0E0808182608083808181608083E8E6D6
:1001C000F0E08081806180936D0080818460808315
:1001D000E89A8AB18B7E8AB98BB184618BB9089514
:1001E00090910501913041F49091030190930401A5
:1001F00092E09093050103C091E0909305018795EB
:10020000882787958093030187E0809306010895EE
:10021000E9E6F0E080818260808380818E7F808348
:1002200080910501823021F483E0809305010895D7
:100230001092050108951F920F920FB60F9211248C
:100240002F933F934F935F936F937F938F939F93DE
:10025000AF93BF93EF93FF9380910801882309F434
:1002600055C1809169008370833009F0AFC08091DF
:100270000601883040F0109206018AB18B7E8AB95F
:100280008BB184618BB980910201873020F566E0E3
:1002900070E0681B710921E030E0A901062E02C060
:1002A000440F551F0A94E2F799B1542F50952091AD
:1002B0000101522392959F70292F30E002C0220F36
:1002C000331F6A95E2F72423250F209301018F5FE6
:1002D000809302011BC190910101903709F016C172
:1002E0008830B8F48F5F8093020189B1909100014A
:1002F0009E7F82958170890F80930001882319F079
:1003000081E080930A0180E00E94F0000E940801D1
:10031000FDC0813108F0FAC06FE070E0681B710920
:1003200021E030E0A901062E02C0440F551F0A94B7
:10033000E2F799B1542F50952091070152239295DD
:100340009F70292F30E002C0220F331F6A95E2F719
:100350002423250F209307018F5F809302018031B2
:1003600009F0D4C080910D01882369F080910B01C0
:1003700080910B018F5F80930B0180910B01823084
:1003800010F010920B01E0910C0180910C018F5F35
:1003900080930C0180910C01823010F010920C01BE
:1003A000F0E0E25FFE4F208390910C0180910B0101
:1003B000981303C081E080930D0180E00E94F0005B
:1003C0000E94080188E080930201A0C0809169002A
:1003D0008370823009F09AC030910601383008F4F9
:1003E0005DC08091050182508230C8F581E0809324
:1003F000050180910401809303018091000188230D
:1004000059F181E0809306012AB18091030190E0C7
:1004100080959095880F892F881F990B82959295CA
:10042000907F9827807F98278071922F9F7E890FD9
:100430008AB92BB180910301881F8827881F90E01B
:1004400082959295907F9827807F98278071922F30
:100450009F7E890F8BB907C054985C9A04C0109294
:10046000050154985C9A80910A01882371F080916B
:1004700005018150823018F410920A0147C081E0D2
:1004800080930901529A5A9841C0E9E6F0E08081D0
:100490008260808380818160808338C02AB18091AE
:1004A000030190E08095909547E050E0BA01631B0E
:1004B000710902C0959587956A95E2F782959295A4
:1004C000907F9827807F98278071922F9F7E890F39
:1004D0008AB92BB18091030190E030910601431B52
:1004E000510902C0959587954A95E2F782959295B4
:1004F000907F9827807F98278071922F9F7E890F09
:100500008BB9809106018F5F80930601FF91EF9177
:10051000BF91AF919F918F917F916F915F914F911B
:100520003F912F910F900FBE0F901F9018951F9223
:100530000F920FB60F9211248F93EF93FF934A9B64
:100540001EC04C9B03C01092080103C081E0809341
:10055000080180910801811112C010920A011092C5
:100560000901109201011092000110920201E9E6C6
:10057000F0E0808182608083808181608083FF9150
:10058000EF918F910F900FBE0F901F901895909143
:10059000100191114CC091E09093100194EA909356
:1005A000BC00ECEBF0E090819923ECF79091B9005E
:1005B000987F983059F5880F8093BB0084E880932A
:1005C000BC00ECEBF0E080818823ECF78091B9006F
:1005D000887F8032D9F06093BB0084E88093BC00B0
:1005E000ECEBF0E080818823ECF78091B900887F04
:1005F000803361F084E98093BC00ECEBF0E0808113
:1006000084FDFDCF1092100180E0089584E980936D
:10061000BC00ECEBF0E0808184FDFDCFECEBF0E082
:1006200080818B7F80831092100181E0089583E0A8
:10063000089590911001911137C091E090931001AD
:1006400094EA9093BC00ECEBF0E090819923ECF7F6
:100650009091B900987F9830B1F4880F8F5F8093A4
:10066000BB0084E88093BC00ECEBF0E08081882341
:10067000ECF78091B900887F883429F085E8809371
:10068000BC0080E0089584E98093BC00ECEBF0E0CE
:10069000808184FDFDCFECEBF0E080818B7F808357
:1006A0001092100182E0089583E008958091120174
:1006B00008950E9456038823E1F31092120180915D
:1006C000110108951F920F920FB60F9211248F936C
:1006D000EF93FF938091BB008093110181E08093A1
:1006E000120184E98093BC007894ECEBF0E0808107
:1006F00084FDFDCF10921001FF91EF918F910F902B
:100700000FBE0F901F901895259A15B80E94D7001C
:100710008FEF8093B80083E08093B90084E08093EA
:10072000BC00E89A789400E021E048E060E875E2D7
:1007300080E090E00E94C60365E080E70E94C70267
:100740000E94B600C82F8C2F0E94530080E70E94A1
:10075000190315B8CF3F11F0CF5F01C0C0E00E9470
:10076000B6030E9459030E943504EDCFCF93DF9367
:10077000CDB7DEB700000E945603982F81E089278D
:100780008823C9F70000DF91CF910895CF92DF92BF
:10079000EF92FF920F936B017C013CE2C31A31E0B0
:1007A000D30AE108F10835EDC31630ECD30631E089
:1007B000E306F10408F053C04550443008F04FC040
:1007C00038E13093C100440F4093C200222329F046
:1007D000E1ECF0E0208120682083053431F4E2EC84
:1007E000F0E020812062208307C00F3429F4E2EC7E
:1007F000F0E02081206320836B017C0120E8C20EA1
:1008000024E8D21E2EE1E21EF11CCC0CDD1CEE1CF5
:10081000FF1CCC0CDD1CEE1CFF1CCC0CDD1CEE1CEC
:10082000FF1CDC01CB01880F991FAA1FBB1F880F7B
:10083000991FAA1FBB1F9C01AD01220F331F441F2C
:10084000551F220F331F441F551FC701B6010E94B9
:100850003D04215031093093C5002093C4000F910D
:10086000FF90EF90DF90CF900895E0ECF0E0908162
:1008700095FFFDCF8093C6000895A1E21A2EAA1B12
:10088000BB1BFD010DC0AA1FBB1FEE1FFF1FA21740
:10089000B307E407F50720F0A21BB30BE40BF50B3D
:1008A000661F771F881F991F1A9469F760957095C6
:1008B000809590959B01AC01BD01CF010895F894FE
:0208C000FFCF68
:00000001FF
