:100000000C9434000C94DA010C9451000C94F00020
:100010000C9451000C9456030C9451000C94510014
:100020000C9451000C94F6030C9451000C94510064
:100030000C9451000C9451000C9451000C945100FC
:100040000C9451000C9451000C9451000C945100EC
:100050000C9451000C9406010C9451000C94510026
:100060000C9451000C94510011241FBECFEFD8E026
:10007000DEBFCDBF11E0A0E0B1E0E4EDFDE002C0E5
:1000800005900D92A230B107D9F721E0A2E0B1E0CE
:1000900001C01D92AD32B207E1F70E94A4040C9496
:1000A000E8060C94000090912201913041F4909167
:1000B00024019093230192E09093220103C091E0E8
:1000C000909322018795882787958093240187E064
:1000D000809321010895E9E6F0E0808182608083C9
:1000E00080818E7F808380912201823021F483E0A1
:1000F00080932201089510922201089520912C01ED
:100100002223F1F08536910570F4DC0120E93DEF02
:100110004FEF5FEF0E94CE066D5D7B408F4F9F4F8C
:100120000E94940504C060E070E086EC92E40E94B6
:1001300045050E94630570938B0060938A000895C3
:100140008536910570F4DC0120E93DEF4FEF5FEF5C
:100150000E94CE066D5D7B408F4F9F4F0E9494059D
:1001600004C060E070E086EC92E40E9445050E94C5
:10017000630570938900609388000895611118C029
:10018000682F70E0660F771F072E000C880B990B05
:100190000E9494050E9445059B01AC0160E070E05F
:1001A0008FE793E40E94D8040E94630567BD089519
:1001B000682F70E0660F771F072E000C880B990BD5
:1001C0000E9494050E9445059B01AC0160E070E02F
:1001D0008FE793E40E94D8040E94630568BD0895E8
:1001E0001F920F920FB60F9211248F939F93189B1B
:1001F00006C090910A0181E0892780930A019F91AE
:100200008F910F900FBE0F901F9018951F920F9215
:100210000FB60F9211248F929F92AF92BF92CF92FE
:10022000DF92EF92FF922F933F934F935F936F93E1
:100230007F938F939F93AF93BF93EF93FF932091FF
:10024000780080917900837090E0982F8827820F42
:10025000911D20912C0121110DC09C01225A334087
:100260002F31310520F421E0209309010FC01092B5
:1002700009010CC09C01225A33402F31310520F472
:1002800021E02093080102C0109208012091090189
:10029000222319F02091080102C020E030E02170F3
:1002A0002093070120910A0121110DC0109228010D
:1002B0001092290110922A0110922B0180E090E007
:1002C0000E947E004EC061EB73E0681B790B072E25
:1002D000000C880B990B0E9494056B017C018090A7
:1002E000280190902901A0902A01B0902B0120E0D4
:1002F00030E0A9010E946106A50194010E94D90481
:10030000609328017093290180932A0190932B0117
:100310008090280190902901A0902A01B0902B0193
:1003200025EC30E240E85FE3C701B6010E946106B8
:100330006B017C012FE632E143E85AE3C501B401C9
:100340000E9461069B01AC01C701B6010E94D9045D
:100350000E945C05CB01992314F480E090E00E9498
:100360007E0090912C0181E0982790932C01ECE77E
:10037000F0E0908189278083EAE7F0E08081806463
:100380008083FF91EF91BF91AF919F918F917F916A
:100390006F915F914F913F912F91FF90EF90DF9080
:1003A000CF90BF90AF909F908F900F900FBE0F9007
:1003B0001F9018951F920F920FB60F9211242F9332
:1003C0003F934F935F936F937F938F939F93AF93DD
:1003D000BF93EF93FF9380911F01882309F455C1C8
:1003E000809169008370833009F0AFC08091210152
:1003F000883040F0109221018AB18B7E8AB98BB18E
:1004000084618BB980912501873020F566E070E02A
:10041000681B710921E030E0A901062E02C0440FDB
:10042000551F0A94E2F799B1542F50952091260157
:10043000522392959F70292F30E002C0220F331F64
:100440006A95E2F72423250F209326018F5F80937E
:1004500025011BC190912601903709F016C1883003
:10046000B8F48F5F8093250189B1909127019E7F19
:1004700082958170890F80932701882319F081E08C
:1004800080931D0180E00E9453000E946B00FDC01C
:10049000813108F0FAC06FE070E0681B710921E05B
:1004A00030E0A901062E02C0440F551F0A94E2F75E
:1004B00099B1542F509520912001522392959F700D
:1004C000292F30E002C0220F331F6A95E2F7242360
:1004D000250F209320018F5F80932501803109F043
:1004E000D4C080911A01882369F080911C01809109
:1004F0001C018F5F80931C0180911C018A3010F0D9
:1005000010921C01E0911B0180911B018F5F809371
:100510001B0180911B018A3010F010921B01F0E04A
:10052000E05FFE4F208390911B0180911C01981386
:1005300003C081E080931A0180E00E9453000E9472
:100540006B0088E080932501A0C0809169008370D2
:10055000823009F09AC030912101383008F45DC032
:100560008091220182508230C8F581E0809322017F
:10057000809123018093240180912701882359F1E0
:1005800081E0809321012AB18091240190E080953F
:100590009095880F892F881F990B82959295907F4F
:1005A0009827807F98278071922F9F7E890F8AB924
:1005B0002BB180912401881F8827881F90E08295A5
:1005C0009295907F9827807F98278071922F9F7EA9
:1005D000890F8BB907C054985C9A04C0109222010D
:1005E00054985C9A80911D01882371F080912201BA
:1005F0008150823018F410921D0147C081E0809331
:100600001E01529A5A9841C0E9E6F0E0808182606A
:10061000808380818160808338C02AB180912401E9
:1006200090E08095909547E050E0BA01631B710916
:1006300002C0959587956A95E2F782959295907F8D
:100640009827807F98278071922F9F7E890F8AB983
:100650002BB18091240190E030912101431B51097D
:1006600002C0959587954A95E2F782959295907F7D
:100670009827807F98278071922F9F7E890F8BB952
:10068000809121018F5F80932101FF91EF91BF91B4
:10069000AF919F918F917F916F915F914F913F911A
:1006A0002F910F900FBE0F901F9018951F920F92D1
:1006B0000FB60F9211248F93EF93FF934A9B1EC0A6
:1006C0004C9B03C010921F0103C081E080931F0167
:1006D00080911F01811112C010921D0110921E0104
:1006E000109226011092270110922501E9E6F0E010
:1006F000808182608083808181608083FF91EF911F
:100700008F910F900FBE0F901F9018951F93CF934E
:10071000DF938AB188688AB987B1806387B9559AAF
:10072000569A5D985E985B9A5F9A449A459A84B50A
:100730008F7C84BD84B58F7384BDC4E6D0E088818E
:100740008F7D888311E014BD85B5846085BD60E030
:1007500080E00E94BE0061E080E00E94BE008881CF
:100760008F7B888383E08093B00088E08093B10022
:1007700089EF8093B30010937000DF91CF911F91A8
:10078000089510920B0160910B0182E30E94BE005C
:100790005B9A5F9884B5806384BD10920C011092BF
:1007A0000D0110920E0110920F01E1EBF0E080813B
:1007B00085608083089581E080930B0160910B0137
:1007C00082E30E94BE00449A459884B5806C84BD43
:1007D00010920C0110920D0110920E0110920F0157
:1007E000E1EBF0E080818560808308951F920F9295
:1007F0000FB60F9211242F933F934F935F936F93F4
:100800007F938F939F93AF93BF93EF93FF938091C9
:100810000C0190910D01A0910E01B0910F01AC015E
:10082000BD014F5F5F4F6F4F7F4F40930C0150935F
:100830000D0160930E0170930F018A3F9105A10590
:10084000B10589F130F48D379105A105B10571F03D
:100850006AC0873721E09207A105B10539F0843FCE
:100860009140A105B10509F440C05DC080910B0124
:1008700081110BC084B58F7C84BD8DE787BD5B98EB
:100880005F9884B5806384BD4EC084B58F7384BD8A
:1008900060910B0188EC0E94BE004498459884B595
:1008A000806C84BD40C080910B01811110C084B563
:1008B0008F7C84BD17BC5B985F9A84B5806384BDD0
:1008C0001092030110920201109200012CC084B515
:1008D0008F7384BD60910B0184E60E94BE00449832
:1008E000459A84B5806C84BD1EC080910B01811136
:1008F00009C084B58F7C84BD5B9A5F9A81E0809348
:1009000001010AC084B58F7384BD449A459A81E081
:100910008093060180930001E1EBF0E080818A7F03
:1009200080831092B200FF91EF91BF91AF919F91A0
:100930008F917F916F915F914F913F912F910F9088
:100940000FBE0F901F90189578940E948603109206
:100950000501109204012FEF83ED90E321508040B8
:100960009040E1F700C000008091040190910501E2
:100970000196909305018093040180910401909168
:1009800005010A9720F01092050110920401809150
:10099000040190910501892B11F40E94C1038091FB
:1009A0000401909105010397B1F60E94DB03D3CFB8
:1009B0005058BB27AA270E94F0040C940F060E94EF
:1009C000010638F00E94080620F039F49F3F19F420
:1009D00026F40C94FE050EF4E095E7FB0C94CF058D
:1009E000E92F0E94200658F3BA176207730784079D
:1009F000950720F079F4A6F50C945A060EF4E095CC
:100A00000B2EBA2FA02D0B01B90190010C01CA01C8
:100A1000A0011124FF27591B99F0593F50F4503E73
:100A200068F11A16F040A22F232F342F4427585F65
:100A3000F3CF469537952795A795F0405395C9F77D
:100A40007EF41F16BA0B620B730B840BBAF0915035
:100A5000A1F0FF0FBB1F661F771F881FC2F70EC0D4
:100A6000BA0F621F731F841F48F4879577956795A7
:100A7000B795F7959E3F08F0B0CF9395880F08F093
:100A80009927EE0F9795879508950E94420690F05A
:100A90009F3748F4911116F40C945B0660E070E007
:100AA00080E89FE3089526F01B16611D711D811DCE
:100AB0000C94D5050C94F0050E9463056894B1115F
:100AC0000C945B0608950E94280688F09F5798F0C2
:100AD000B92F9927B751B0F0E1F0660F771F881F43
:100AE000991F1AF0BA95C9F714C0B13091F00E945D
:100AF0005A06B1E008950C945A06672F782F88277C
:100B0000B85F39F0B93FCCF3869577956795B39583
:100B1000D9F73EF490958095709561957F4F8F4FF2
:100B20009F4F0895E89409C097FB3EF490958095F7
:100B3000709561957F4F8F4F9F4F9923A9F0F92FA3
:100B400096E9BB279395F695879577956795B79521
:100B5000F111F8CFFAF4BB0F11F460FF1BC06F5F07
:100B60007F4F8F4F9F4F16C0882311F096E911C019
:100B7000772321F09EE8872F762F05C0662371F03A
:100B800096E8862F70E060E02AF09A95660F771F4E
:100B9000881FDAF7880F9695879597F9089597F942
:100BA0009F6780E870E060E00895882371F4772300
:100BB00021F09850872B762F07C0662311F49927D0
:100BC0000DC09051862B70E060E02AF09A95660F78
:100BD000771F881FDAF7880F9695879597F90895FC
:100BE0009F3F31F0915020F4879577956795B795A1
:100BF000880F911D9695879597F908959FEF80EC42
:100C0000089500240A941616170618060906089572
:100C100000240A9412161306140605060895092ED8
:100C20000394000C11F4882352F0BB0F40F4BF2B47
:100C300011F460FF04C06F5F7F4F8F4F9F4F089587
:100C400057FD9058440F551F59F05F3F71F047957D
:100C5000880F97FB991F61F09F3F79F08795089562
:100C6000121613061406551FF2CF4695F1DF08C081
:100C7000161617061806991FF1CF8695710561059E
:100C8000089408950E942806A0F0BEE7B91788F4DA
:100C9000BB279F3860F41616B11D672F782F882761
:100CA000985FF7CF869577956795B11D939596399F
:100CB000C8F30895E894BB2766277727CB0197F9F7
:100CC00008950E9474060C940F060E94010638F0E5
:100CD0000E94080620F0952311F00C94CF050C9487
:100CE000FE0511240C945B060E94200670F3959F6C
:100CF000C1F3950F50E0551F629FF001729FBB2713
:100D0000F00DB11D639FAA27F00DB11DAA1F649FAE
:100D10006627B00DA11D661F829F2227B00DA11D61
:100D2000621F739FB00DA11D621F839FA00D611DE7
:100D3000221F749F3327A00D611D231F849F600D08
:100D4000211D822F762F6A2F11249F5750409AF031
:100D5000F1F088234AF0EE0FFF1FBB1F661F771FBD
:100D6000881F91505040A9F79E3F510580F00C9488
:100D7000CF050C945B065F3FE4F3983ED4F3869571
:100D800077956795B795F795E7959F5FC1F7FE2B28
:100D9000880F911D9695879597F908950E94D90619
:100DA000A59F900DB49F900DA49F800D911D1124BF
:100DB0000895A29FB001B39FC001A39F700D811D34
:100DC0001124911DB29F700D811D1124911D089554
:040DD000F894FFCFC5
:020DD40001011B
:00000001FF
